:020000040007F3
:1080000000960020DD830700E5830700E783070073
:10801000E9830700EB830700ED8307000000000001
:10802000000000000000000000000000C9830700FD
:10803000F183070000000000F3830700F5830700C9
:10804000F7830700F7830700F7830700F78307002C
:10805000F7830700F7830700F7830700F78307001C
:10806000F7830700F7830700F7830700F78307000C
:10807000F7830700F7830700F7830700F7830700FC
:108080003998070009950700F7830700F783070071
:10809000F7830700F783070019950700F7830700A8
:1080A000F7830700F7830700F7830700F7830700CC
:1080B000F7830700F78307000000000000000000BE
:1080C000F7830700F7830700F7830700F7830700AC
:1080D000F7830700F7830700F7830700000000001D
:1080E0000000000000000000000000000000000090
:1080F0000000000000000000000000000000000080
:10810000000000000000000000000000000000006F
:10811000000000000000000000000000000000005F
:10812000000000000000000000000000000000004F
:10813000000000000000000000000000000000003F
:10814000000000000000000000000000000000002F
:10815000000000000000000000000000000000001F
:10816000000000000000000000000000000000000F
:1081700000000000000000000000000000000000FF
:1081800000000000000000000000000000000000EF
:1081900000000000000000000000000000000000DF
:1081A00000000000000000000000000000000000CF
:1081B00000000000000000000000000000000000BF
:1081C00000000000000000000000000000000000AF
:1081D000000000000000000000000000000000009F
:1081E000000000000000000000000000000000008F
:1081F000000000000000000000000000000000007F
:10820000DFF80CD000F07EF90048004749A80700CD
:108210000096002080F308888E46104730B450E85E
:10822000012F93B2C48923448489A34228BF1B1B16
:108230000489A34202BFBFF32F8F002007E0C3EAE7
:10824000020340E80134002CE9D14FF001000A603C
:1082500030BC704750E8012FC2EA024240E80121D9
:108260000029F7D1704730B450E8022F1FFAA2F36B
:10827000C488A34202BFBFF32F8F00200DE0C48942
:1082800023448489A34228BF1B1BC2EA034340E85E
:108290000234002CE8D14FF001000A6030BC704776
:1082A00050E8022FC2EA224240E802210029F7D119
:1082B0007047034653E8022FD988B2EB324F4FF094
:1082C000000017BF92B241EA014142EA014104E0D5
:1082D0005A68B2EB324F08BF012043E80212002A6D
:1082E000E8D1704730B4044654E8000F0D4644E826
:1082F0000053002BF8D1156030BC704730B40446F1
:1083000054E8000F40EA010544E80053002BF7D180
:10831000156030BC704730B4044654E8000F00EAE2
:10832000010544E80053002BF7D1156030BC7047BD
:1083300030B4044654E8000F80EA010544E80053D5
:10834000002BF7D1156030BC704730B4044654E8B8
:10835000000F00EB010544E80053002BF7D1156036
:1083600030BC704730B4044654E8000FA0EB010560
:1083700044E80053002BF7D1156030BC704770B44F
:1083800004464FF0000054E8006F0D68AE4207BF8E
:1083900044E80023012044E800630E60002B1CBF6A
:1083A0000020F0E770BC704730B4044654E8000F7A
:1083B00088422CBF451A054644E80053002BF5D1EE
:1083C000156030BC704700001EF0040F0CBFEFF3C7
:1083D0000880EFF3098003F019BD000006488047CC
:1083E00006480047FEE7FEE7FEE7FEE7FEE7FEE79A
:1083F000FEE7FEE7FEE7FEE71D95070001820700A6
:108400002DE9F05F0546002092469B4688460646C9
:10841000814640241BE0284641464746224600F05C
:1084200060F853465A46C01A914110D31146184677
:10843000224600F016F82D1A67EB01084F46224637
:108440000120002100F00DF817EB00094E41201E1D
:10845000A4F10104DFDC484631462A464346BDE824
:10846000F09F202A04DB203A00FA02F10020704736
:108470009140C2F1200320FA03F319439040704762
:1084800040EA01039B0703D009E008C9121F08C096
:10849000042AFAD203E011F8013B00F8013B521E16
:1084A000F9D27047D2B201E000F8012B491EFBD28D
:1084B00070470022F6E710B513460A4604461946EF
:1084C000FFF7F0FF204610BD30B5044600200346FC
:1084D00000E05B1C934203D2E05CCD5C401BF8D013
:1084E00030BD202A04DB203A21FA02F00021704737
:1084F00021FA02F3D040C2F120029140084319460C
:1085000070470000064C074D06E0E06840F00103AC
:1085100094E8070098471034AC42F6D3FFF774FE96
:10852000CCDB0700ECDB07002DE9F0438BB0804685
:10853000129D15F9046B009614461F4689462B467A
:1085400002A81146424600F0ABFC02A80146129A6E
:1085500000F0A2FC4046414602AA129B00F08CFCAF
:108560002046214602AA129B00F086FC2B46384684
:1085700039464A46009600F093FC02A83946129A02
:1085800000F08AFC02A8014642462B46009600F005
:1085900087FC02A8014622462B46009600F080FC8C
:1085A0002046214642462B46009600F079FC48467C
:1085B00049462246129B00F05FFC2046414602AA33
:1085C0002B46009600F06CFC384639462246129B3A
:1085D00000F052FC384639464A462B46009600F0D9
:1085E0005FFC204602A9324600F024FE0BB0BDE835
:1085F000F083F0B589B01C4607460E46154668461E
:1086000011461A4600F048FC384639466A46234669
:1086100000F032FC684669462A46234600F02CFCEE
:10862000304631466A46234600F026FC09B0F0BDCC
:108630001AB1013A8B5C8354FAE770472DE9F04791
:108640008846B3F902101F460825CB1D202493FB52
:10865000F5F51F31954291FBF4F44FFA84F928BFE8
:1086600015460646494600F08FFA2A4630464146EE
:10867000FFF7DEFFB7F90230ED009D4220D9ED1A79
:1086800006EB840100228E420AD251F8040D20FA32
:1086900005F313430B60C5F1200300FA03F2F2E780
:1086A0002437384631464A4600F07AFA012807D086
:1086B000304631463A464B46BDE8F04700F0C8BD6B
:1086C000BDE8F0872DE9F04793F9006092B00446C9
:1086D0008946104631461546984600F076FA00283D
:1086E00040F0978002A84946424600F0D5FB434639
:1086F0000AA8214602AA00F0BFFB02A80146424692
:1087000000F0CAFB4346484649462A4600F0B4FBFF
:1087100008F1040728462946424600F0BDFB2046E2
:1087200021462A463B46009600F05EFA2846294636
:108730002A463B46009600F057FA284621462A462C
:108740003B46009600F0ACFB204621462A464346B5
:1087500000F092FB2846214622463B46009600F058
:1087600043FA20463B46009621462A4600F03CFA52
:108770002368DB07204613D5334621463A4600F0EE
:10878000D7F931468246204600F047FD06F1804386
:10879000013B54F8230040EACA7044F8230002E089
:1087A000314600F03AFD28462146424600F074FB6F
:1087B000284629460AAA3B46009600F071FB284647
:1087C00029460AAA3B46009600F06AFB0AA8014621
:1087D0002A463B46009600F063FB204621460AAA43
:1087E000434600F049FB02A802463B46214600965C
:1087F00000F056FB20462946324600F01BFD284675
:108800004946324600F016FD484602A9324600F0BD
:1088100011FD12B0BDE8F087004870471CDB07006F
:108820002DE9F04FEFB01E46789D05902B7803930D
:10883000B5F9023092461F33202293FBF2F3DBB2EC
:1088400006939DF9187095F9012007F1FF3926ABC1
:10885000002443F829406EAB03EB89034EA88B46F6
:10886000314643F8804C43F8604CFFF7E1FE95F940
:10887000012056A8B118FFF7DBFE9DF90C604EA849
:10888000314600F0A2F98046002840F0468156A803
:10889000314600F09AF90446002840F03C8105F189
:1088A000240840464EA93A4600F07AF9012840F0E3
:1088B0003481404656A93A4600F072F901280890E2
:1088C00040F02B813B461EA856A9424600F0A5F970
:1088D0000DF1380C6046594652462B464CF829405B
:1088E000CDF810C0FFF7AAFEDDF810C00097604673
:1088F00061461EAA4346CDF824C00DF5BC7900F0B0
:1089000013FA4346009716A84EA91EAA00F00CFAC7
:1089100048463246059900F08DFCB300049309EBFC
:10892000030B049A059B58469918324600F082FCC6
:1089300005F144031946324636A8079300F07AFC45
:1089400005EB860132463EA8443105F1040A00F0E9
:1089500071FC494600961EA836AA534600F0A0FABC
:108960004A465B4636A83EA90095FFF7DDFD1EA8E6
:1089700001463346524600F050F91EAA4846594671
:108980002B46FFF736FEDDF824C0079B0B936046AD
:10899000059B0C933946CDF814C00A94CDF8349059
:1089A00000F019FC3946044616A800F014FCA04259
:1089B000B8BF204684B2DDF814C0671E3FB26046DF
:1089C000394600F075FC394610F1000916A818BFA9
:1089D0004FF0010900F06CFC002814BF02230023B3
:1089E00043EA09090DF1280B32465BF8297026A8E5
:1089F000394600F01FFC049B3246F9182EA800F0FF
:108A000019FC31461EA800F0BFF8023C089B1E93DB
:108A1000A6B20FFA86F9B9F1000F26AF47DB2B4655
:108A20001EAAD5F8A44038462EA9A04749460EA84C
:108A300000F03EFC4946041C16A818BF012400F0B3
:108A400037FC002814BF022300231C430AAB53F851
:108A50002490B9F1000F27D09DF90C4036A8494663
:108A6000224600F0E7FB049B3EA809EB03012246E7
:108A700000F0E0FB36A83EA91EAA2B46FFF7B9FD81
:108A800046A8394636AA5346009400F009FA36A89B
:108A90003EA93A462EAB0095FFF746FD1EA80146BB
:108AA00046AA2B4600F0E8F9013EB6B2B1E71EA88F
:108AB000014652469DF90C3000F0AFF838462EA919
:108AC0001EAA2B46FFF795FD9DF9184040463946F2
:108AD000224600F065F8012805D03846394642465E
:108AE000234600F0B5FB039B013BDBB200245AB2E6
:108AF000002A0CDB12B26EA901EB820157F822208A
:108B000051F8801C013B4A401443DBB2EFE7B4FA52
:108B100084F0400902E0404600E020466FB0BDE826
:108B2000F08F0000000000000000000000000000C6
:108B3000C3F10803DB0070B501330446002003A530
:108B40005B1920C940CAAD1920C4184720C940CAC2
:108B5000754120C420C940CA754120C420C940CAFB
:108B6000754120C420C940CA754120C420C940CAEB
:108B7000754120C420C940CA754120C420C940CADB
:108B8000754120C4404170BD10B5002253B28B42E4
:108B900005DA1BB2002440F823400132F6E710BD8D
:108BA00010B5013AD2B253B2002B09DB1BB250F818
:108BB000234051F823309C4204D8F2D2FF2002E037
:108BC000002000E0012040B210BD10B500231A467D
:108BD0005CB28C4204DA50F8244001332243F7E7B8
:108BE000B2FA82F0400910BD70B59DF910401D46E3
:108BF00023460646FFF79CFF30B9284631462246F9
:108C0000FFF7CEFF012807D0304631462A462346DB
:108C1000BDE8704000F01CBB70BDF0B50646A1B0C9
:108C20000F460846194615461C46FFF7CEFF20B1F1
:108C300030462146FFF7A8FF73E0684639462246D2
:108C400000F0F8FA08A82946224600F0F3FA10A826
:108C50002146FFF799FF012318A821461093FFF73B
:108C600093FF684608A92246FFF79AFF002853D0D1
:108C7000009BDA0704D46846214600F0CEFA26E0CD
:108C8000089BDB0704D408A8214600F0C6FA3DE0A3
:108C900000281EDD08AA23466946684600F0D8FA77
:108CA0006846214600F0B9FA10A818A92246FFF735
:108CB00077FF002805DA10A801462A462346FFF769
:108CC00037FF10A8014618AA234600F0C1FA10A8E1
:108CD0001DE008A86A462346014600F0B9FA08A834
:108CE000214600F09AFA18A810A92246FFF758FF6B
:108CF000002805DA18A801462A462346FFF718FF80
:108D000018A8014610AA234600F0A2FA18A829467E
:108D1000224600F0AFFBA4E7304610A9224600F03F
:108D200089FA21B0F0BD00002DE9F043B3B002ACE8
:108D30009DF9E8901F4680464B46204600F0C2F859
:108D400022AB494638468DE8180000F044FAC0EBE3
:108D5000891086B2474B32B21340002BBCBF03F1DF
:108D6000FF3363F01F034FF0200592FBF5F5EDB2E2
:108D7000B8BF01336DB29CB212A82946FFF704FFB9
:108D800023B2002B28B213DD12AA002102EB8000CF
:108D90000A464A4513D257F8225005FA03F42143F4
:108DA00040F82210C3F1200125FA01F10132F0E769
:108DB00012AB03EB800039464A4600F03BFA0FFA4B
:108DC00089F512AB6F00012403EB8505330444D40D
:108DD0000022114653B2BB4222DA0DF1C80E0EEB4F
:108DE000840E0DF1C80C18B25EF8C8EC0CEB8303CE
:108DF0005EF820E053F8803CC3EB0E035B1A73452A
:108E000002D08CBF01210021C4F1010E0DF1C80C6C
:108E10000CEB8E0E01325EF8C8EC4EF82030D9E72C
:108E2000621A544212A84946544100F0F6F932AA97
:108E300009F1FF3302EB830302EB8902284652F863
:108E4000801C53F8802C013E42EAC172494643F827
:108E5000802CB6B200F0E1F9B8E732AB03EB840442
:108E6000404654F8C81C4A4600F0E4F933B0BDE867
:108E7000F08300BF1F00008030B51C4691B005464E
:108E800093F90030684600F01DF8D4F8AC3028465D
:108E90006946984711B030BD13460A46FFF7ECBF4C
:108EA00070B59DF910401D462346064600F0D0F9E6
:108EB00038B1304631462A462346BDE87040FFF7B8
:108EC00037BE70BD2DE9F04F08B4F8CA04B451F8AC
:108ED000042BA3FB028940F8048B4FF0000AE4FB4B
:108EE000629A4FF0000BE5FB62AB4FF0000CE6FB23
:108EF00062BC4FF0000EE7FB62CE51F8042B4FF03E
:108F00000008E3FB628940F8048BE4FB629AE5FB0E
:108F100062ABE6FB62BCE7FB62CE51F8042B4FF07C
:108F20000008E3FB628940F8048BE4FB629AE5FBEE
:108F300062ABE6FB62BCE7FB62CE51F8042B4FF05C
:108F40000008E3FB628940F8048BE4FB629AE5FBCE
:108F500062ABE6FB62BCE7FB62CE51F8042B4FF03C
:108F60000008E3FB628940F8048BE4FB629AE5FBAE
:108F700062ABE6FB62BCE7FB62CE40F8049B40F8C4
:108F800004AB40F804BB40F804CB40F804EB0CBC45
:108F9000052B00F01E810C68A0F11400A1F1140152
:108FA000A2F1140252F804EB4FF0000550F8046BE4
:108FB000E4FB6E5652F804EB50F8047BE4FB6E675A
:108FC00052F804EB50F8048BE4FB6E7852F804EB93
:108FD00050F8049BE4FB6E8952F804EB50F804ABA4
:108FE000E4FB6E9AA0F1140052F8044B51F804EB24
:108FF0004FF0000CE4FB6EC540F804CB51F804EBD5
:10900000E4FB6E5640F8045B51F804EBE4FB6E673A
:1090100040F8046B51F804EBE4FB6E7840F8047BF5
:1090200051F804EBE4FB6E8940F8048B51F804EB33
:10903000E4FB6E9AA0E80006062B00F0CA800C68DC
:10904000A0F11800A1F11801A2F1180252F804EBE6
:109050004FF0000550F8046BE4FB6E5652F804EB39
:1090600050F8047BE4FB6E6752F804EB50F8048B75
:10907000E4FB6E7852F804EB50F8049BE4FB6E8935
:1090800052F804EB50F804ABE4FB6E9A52F804EB90
:1090900050F804BBE4FB6EABA0F1180052F8044B8F
:1090A00051F804EB4FF0000CE4FB6EC540F804CB24
:1090B00051F804EBE4FB6E5640F8045B51F804EB06
:1090C000E4FB6E6740F8046B51F804EBE4FB6E7848
:1090D00040F8047B51F804EBE4FB6E8940F8048B04
:1090E00051F804EBE4FB6E9A40F8049B51F804EB52
:1090F000E4FB6EABA0E8000C072B6AD008B40C6848
:10910000A0F11C00A1F11C01A2F11C0252F804EB19
:109110004FF0000550F8046BE4FB6E5652F804EB78
:1091200050F8047BE4FB6E6752F804EB50F8048BB4
:10913000E4FB6E7852F804EB50F8049BE4FB6E8974
:1091400052F804EB50F804ABE4FB6E9A52F804EBCF
:1091500050F804BBE4FB6EAB52F804EB50F804CBC0
:10916000E4FB6EBCA0F11C0052F8044B51F804EB78
:109170004FF00003E4FB6E3540F8043B51F804EB7C
:10918000E4FB6E5640F8045B51F804EBE4FB6E67B9
:1091900040F8046B51F804EBE4FB6E7840F8047B74
:1091A00051F804EBE4FB6E8940F8048B51F804EBB2
:1091B000E4FB6E9A40F8049B51F804EBE4FB6EABC1
:1091C00040F804AB51F804EBE4FB6EBCA0E80018D7
:1091D00008BCBDE8F08F0139C9B24BB2002B0BDAE5
:1091E000013111F0FF0315D059B201F18043013B69
:1091F00050F82320002304E050F82330002BEAD05D
:10920000EEE712B152080133FBE7481E03EB4010B2
:1092100080B200E0184600B2704700EB81010023E5
:10922000884206D251F8042D43EA52030B60D3075B
:10923000F6E7704730B5002463B2934206DA1BB2FA
:10924000013451F8235040F82350F5E730BD0000B9
:10925000C3F10803DB0070B50133002403A500BF90
:109260005B1920C940CAAD1B20C0184720C940CA9D
:10927000B54120C020C940CAB54120C020C940CA5C
:10928000B54120C020C940CAB54120C020C940CA4C
:10929000B54120C020C940CAB54120C020C940CA3C
:1092A000B54120C06441B4FA84F0400970BD00BFEC
:1092B0004A11012301F01F0150F822008B40184091
:1092C00070470000F0B50C4689B008220646FFF74B
:1092D000B1FFE36A0393236B0493636B0593A36B62
:1092E0000693E36B0793002769466A46082368469E
:1092F000029701970097FFF71BFC314605466A4627
:1093000008233046FFF714FC236B0393636B04932D
:10931000A36B0593E36B0693054469466A460823ED
:1093200068460797FFF704FC314605446A46082360
:109330003046FFF7FDFB236A0093636A0193A36A3B
:109340000293A36B0693E36B0793054431466A4689
:1093500008233046059704970397FFF7E9FB636AF4
:109360000093A36A0193E36AA26B0293636B039376
:1093700004920693E26B236A0592054407933146F3
:109380006A4608233046FFF7D3FBE36A0093236B5A
:109390000193636B0293236A0693A36A07930544C0
:1093A00031466A4608233046059704970397FFF72E
:1093B0004FFF236B0093636B0193A36B0293E36BEB
:1093C0000393636A0693E36A07932D1A31466A464C
:1093D0000823304605970497FFF73AFF636B009325
:1093E000A36B0193E36B0293236A0393636A049371
:1093F000A36A0593236B07932D1A31466A46082307
:1094000030460697FFF724FFA36B0093E36B0193AD
:10941000636A0393A36A0493E36A0593636B0793F8
:109420002D1A314630466A46082302970697FFF701
:109430000FFF2D1A16D5304631460D4A0823FFF787
:1094400077FB4519F7D410E0094831460822FFF7A9
:10945000A7FB012809D030463146054A0823FFF70B
:10946000F7FE2D1A002DEFD0F5E709B0F0BD00BFD3
:1094700020DB0700F8B5036813F0010506460F4628
:10948000144605D001463A462346FFF751FB0546F0
:1094900030462146FFF7C1FE45B104F18042013A52
:1094A00056F8223043F0004346F82230F8BD2DE94B
:1094B000F04115468AB00446884602A800212022C1
:1094C000FEF7F9FF2E780323204641462A462F1D3A
:1094D00076B20293FFF7E0FC2046214602AA3B4603
:1094E0000096FFF7DDFC2046214642462B46FFF75B
:1094F000C3FC00962046214605F184023B46FFF757
:1095000073FB0AB0BDE8F08102490248091F0968EF
:10951000006808472C58002002F0E0BBF0B5B548C1
:109520000023021D0178101D01254FF080540629EB
:109530000BD11678360708D10678C6F30316032E2A
:1095400006D0042E04D0052E02D0062907D00EE046
:10955000B4F82463A84FC6F304263E6002E01678F0
:10956000360704D10678C6F30316032E02D0062967
:1095700004D00FE0A24FA14E7E670EE016783607AA
:1095800008D10678C6F30316032E06D0042E04D0A5
:10959000052E02D0062907D00EE0D4F84462994F78
:1095A000C6F342363E6002E01678360704D10678EC
:1095B000C6F30316032E02D0062906D011E0924E00
:1095C000376827F0807737600EE01678360708D1C5
:1095D0000678C6F30316032E06D0042E04D0052EFB
:1095E00002D006290AD011E04FF08046C6F80C31AF
:1095F000C6F81031834E361F336002E01678360706
:1096000004D10678C6F30316032E02D0062905D02E
:109610000CE07C4F032664373E600AE0167836077C
:1096200004D10678C6F30316032E02D006290DD006
:1096300014E0764F05263E60744E78363560734EE2
:10964000083633603F263F1D3E6002E0167836073D
:1096500004D10678C6F30316052E02D0062957D08A
:1096600062E06B4E36686B4F3E60694E361D366861
:109670003F1D3E60664E083636683F1D3E60644EB4
:109680000C3636683F1D3E60614E103636683F1D11
:109690003E605F4E143636683F1D3E605C4E1836A5
:1096A00036685C4F20373E60594E1C3636683F1D89
:1096B0003E60574E203636683F1D3E60544E24367D
:1096C00036683F1D3E60524E283636683F1D3E606C
:1096D0004F4E2C3636683F1D3E604D4E3036366854
:1096E0004C4F40373E604A4E343636683F1D3E6030
:1096F000474E383636683F1D3E60454E3C3636682C
:109700003F1D3E60424E403636683F1D3E6002E0DF
:109710001678360708D10678C6F30316032E06D04E
:10972000042E04D0052E02D0062907D019E0D4F863
:109730005812394A01F04F01116002E0117809070F
:109740000FD10078C0F30310032803D0042801D000
:10975000052806D131480168C90702D06FF0010120
:109760000160D4F83001062808D1D4F83401062865
:1097700004D12B48016841F48061016022487438AB
:10978000016841F470010160BFF34F8FBFF36F8F29
:109790004FF01021D1F80002002803DBD1F80402B9
:1097A000002822DA1F4A15601F480468002CFCD0EC
:1097B0001524C1F800420568002DFCD0C1F8044210
:1097C00001680029FCD0136001680029FCD0BFF3B8
:1097D0004F8F0D48F0380168144A01F4E0611143DD
:1097E0000160BFF34F8F00BFFDE7124910480860CA
:1097F000F0BD0000E00F00F0403501400DF0ADBAC3
:1098000000C007403C050040FCED00E01056004061
:109810000404001020C50040E40E00400004004095
:109820003C17004004E5014000E401400400FA0553
:109830000090D00344580020034808B5002101607F
:109840000068009008BD00000001014002E008C867
:10985000121F08C1002AFAD170477047002001E0AA
:1098600001C1121F002AFBD17047000001212028EE
:1098700003DA81400548014003E0402802DA20383D
:10988000814009B10120704700207047FC06FFBDF0
:10989000082806D228B1012803D0042801D00120CD
:1098A000704700207047800701D0002070470120DA
:1098B0007047C3688B4206D811440069491E814233
:1098C00001D80120704700207047000030B585B0F6
:1098D0000D46164C1621ADF800101ECC0DF1040CEF
:1098E0008CE81E00124C0221012221706270A070CF
:1098F0000320E070217159206071FE20A07169463B
:1099000004F109007DDF00280ED1BDF800002A46D1
:10991000411CE17109212172BDF808100844ADF81D
:10992000080001A9034872DF05B030BDB0D70700B9
:10993000AC5C0020C857002010B586B00624182261
:1099400008496846FEF79CFD69462046FFF7BEFFC2
:10995000002805D1044C207874DF0121207873DFC2
:1099600006B010BDC0D70700C857002070B5104C16
:10997000A66C656A01F0E8FA216B08446A1A314462
:10998000814200D10022082300F0CAFE06000DD15A
:1099900001F0DAFA0022294600F0EEFBA16A8142CA
:1099A00003D10121A561C4E90701304670BD000063
:1099B000FC6E002002F062FB02F060FB2DE9F84F24
:1099C000254C8146924660880E46814241D8002748
:1099D0004FF6FF788DF80070684600F0C9F82278DD
:1099E0006078A188884201DA401C00E00020C0B203
:1099F000904204D19DF8000000F0DEF827E0657881
:109A00006078884201DA401C00E0002060709DF818
:109A1000000000F0D1F8454519D0A068B9F1000F59
:109A200040F835A00DD066B16188E068324605FB8C
:109A300001004946FEF724FDA06800EBC5008680C2
:109A400002E000EBC50087800020BDE8F88F04200D
:109A5000FBE70920F9E700000458002010B50E4C80
:109A600003E0401C00E000202070207861788142F3
:109A700010D022786188E068A36802FB010003EB44
:109A8000C20153F83220898890472078A188884203
:109A9000E9DAE6E710BD00000458002030B5CB003D
:109AA00008339DB293074FF0000401D0072030BD6A
:109AB000044B9A602A44DA605C701C70588099806C
:109AC000002030BD045800203AB100680129C2606E
:109AD00000D00021816000207047072070470000FF
:109AE00038B50E4808235822416800910C49006897
:109AF00000F0D0FE00280FD10A4A69460A4800F05B
:109B000079FC040008D10121074800F0BEFC064999
:109B1000012008390870204638BD0000D8D8070059
:109B2000987300200DCC07001C58002070B5044627
:109B30000A480D46814201D9072070BD08482261BC
:109B400000F053FC28446060A06800B1A560214685
:109B5000BDE87040002003F059BC000017FCFF0076
:109B60001C580020014600200875012003F04EBC5F
:109B700030B5EFF3108172B60D4A9468012324B119
:109B80000370002900D162B630BD93604FF0E0232E
:109B9000D3F88051074C25401560C3F88041D3F8B5
:109BA000844154605A17C3F8842100220270E8E708
:109BB000F0730020FC06FFBD0B498A68002A11D013
:109BC00000280FD1EFF3108072B60B684FF0E0223F
:109BD000C2F800314B68C2F8043100228A600028C4
:109BE00000D162B670470000F073002070B51148D4
:109BF0000146456AC06A8C6CAC280AD1486B0444A3
:109C00002D1A2A46A4F580410B48FEF75DFC00287A
:109C10000ED02A4621460848FEF756FC002807D0F9
:109C200001F01EF829462046BDE8704001F0D0BA88
:109C300070BD0000FC6E00200080070030B50446B7
:109C40002C4995B04FF6FF70488001208DF8120026
:109C50004FF65960ADF81000224604A90120A8DF94
:109C6000002844D1244B0FCB8DE80F00A11C68467F
:109C700062DF00283BD120491C2260390BA8FEF787
:109C8000FFFB1E4D142205F1C401A8681290A078B4
:109C90008DF84A002868139006A8FEF7F1FB12A879
:109CA000069013A807902088231D06AA0BA9AADFF7
:109CB00000281CD11C2205F1D8010BA8FEF7E0FBFF
:109CC000E8681290A0788DF84A0068681390142212
:109CD00005F1F40106A8FEF7D3FB12A8069013A81D
:109CE0000790208804F10C0306AA0BA9AADF15B07F
:109CF00030BD0000C857002088D8070080D7070073
:109D0000F0B585B0044614216846FEF7D2FB2078F2
:109D1000032308280BD12748C188491E89B2C18076
:109D20008288002A3ED000293CD1C280237021784D
:109D3000607860228DF800208DF801108DF8020007
:109D40006078032101280AD00B2828D100F0A0FC5C
:109D50008DF80300002000F0A3FC04211FE0207810
:109D600009281CD2DFE800F01B1B1B201B1B051B56
:109D70002000D4E902706D46E91C666803F080FBA0
:109D8000044629193046C91C03F07AFB04442919FA
:109D90003846C91C03F074FB2044C01CC1B268469D
:109DA00002F016FF05B0F0BDD4E90112684602F0DA
:109DB000FEFEF2E7C85700202DE9F04113490346A3
:109DC00000208A68D4071ED0114CA3421BD04888BB
:109DD000A0F57F43FF3B10D042F004028A601321BC
:109DE00076DF00280FD10B4EC8254FF47A47741C3C
:109DF0003846A0476D1EFAD101E0087874DFBDE84F
:109E0000F04101F0F9BEBDE8F0810000C857002024
:109E1000ECDB070090D7070038B5214C0021227AEF
:109E2000D20701D0084638BDE0601E4800F0BCFDF6
:109E30000020009001F0D8F988B91B4813DF70B9F1
:109E400001F004FF58B9684601F044FE38B969468C
:109E5000012001F049FE10B9684601F093FE002888
:109E6000E1D101F0D1FA30B1104801F0C1FAA06897
:109E700040F00200A06000F01FFC0028D3D10B4886
:109E80001C30FFF7DBFE0028CDD1FFF755FD002881
:109E9000C9D1A06840F00100A060002038BD0000DA
:109EA000C8570020F4DB070000800700CC5C0020CE
:109EB00070B50446011D008800226F4D86B0212830
:109EC0007ED025DC13287CD018DC01287AD010281D
:109ED0005BD011284AD14FF6FF706880287A40077E
:109EE00004D4FFF729FD08B1FFF766FDE9680029F2
:109EF0003CD006B00220BDE870400847142878D056
:109F00001A2877D01F2831D16888091D75DF62E0D3
:109F1000512870D02CDC222828D0232862D0242875
:109F200024D0502822D1554D34F8060FA9888842F4
:109F30001CD1534800F0FEFC060017D0628904F1E2
:109F40000C01FEF79DFA18224E496846FEF798FA72
:109F5000049601956089ADF81400684601F078F91F
:109F6000002803D03146464800F006FD06B070BD1B
:109F700052287BD0552813D05628F7D1A079002835
:109F8000F4D11321688876DF25E008886880E968C5
:109F900009B1012088473B4968887A3975DFE5E7D0
:109FA000E188F72914D28807B0F1404F11D0C91FBA
:109FB00089B2481EC21700EB927222F0030202E03F
:109FC00033E01CE036E0801A081A801D81B200E000
:109FD000F7216888B5DF0028C8D006B0BDE870401A
:109FE000FFF7EABC00920192A0880022694690DF48
:109FF00018E034E03AE021E0FFF7DEFCB6E7214864
:10A000006A46903842F60521806A009002A80190C5
:10A010006888ADDF08B1FFF7CFFC00231A46852121
:10A0200068887FDF0028E7D1A0E7009208886946AA
:10A030008FDFF7E70021688866DFCCE7A07900288A
:10A0400094D021460D4802F07DF800288ED006B04D
:10A0500004F10801BDE87040084801F025BF002464
:10A06000088822462346214686DFB4E70023088875
:10A070001A461946B1DFAEE7C8570020E85C002059
:10A08000F4DB070010D80700007800F001007047EB
:10A09000BFF34F8F05480168054A01F4E0611143A1
:10A0A0000160BFF34F8F00BFFDE700000CED00E043
:10A0B0000400FA052DE9FC410646C0074FF00005F3
:10A0C0000ED0104F00240122385D00950023114668
:10A0D000019501F0A8FC641C042CF4D300F024F8D2
:10A0E000B0070DD5074E0024361D0022305D032336
:10A0F00000951146019501F096FC641C042CF4D3E4
:10A10000BDE8FC8110D607000249085C012101F07E
:10A110009CBC000010D607000249085C002101F039
:10A1200094BC000010D6070010B500242046FFF7AD
:10A13000EBFF641C042CF9D310BD10B543689C18C8
:10A14000446021B905E013F8010B01F8010B521E20
:10A15000F9D2012010BD00000249CA6B4260096CAF
:10A1600081607047FC6E002040684968884201D8D1
:10A170000120704700207047F0B54FF0FF3622B144
:10A180001268D24300230A4D0DE03246FAE7C45C60
:10A1900062400824D70700D037462F4087EA520292
:10A1A000641EF7D15B1C8B42F1D3D043F0BD00009D
:10A1B0002083B8EDF0B5146906468DB020681546C9
:10A1C000271DE0B1022920D00A2000906B4609AA81
:10A1D000304602F0BBFC00280FD009A901A8009A64
:10A1E00002F044FB01AE96E80F0005AE86E80F00D2
:10A1F000236869683A4605A898470DB0F0BD0DB0D0
:10A200003046BDE8F04002F0A5BB6946304602F09A
:10A2100037FB0028F1D0236869683A4668469847BA
:10A220000028EAD002980028F5D10198706001203A
:10A23000E3E753685B7813F0C00303D0402B03D0EF
:10A240000020704700F002B8FFF7B4BF2DE9FF41CE
:10A250000B465168064614464878334D00F00F020D
:10A2600010F0300055F8225006D0102806D02028D3
:10A2700008D0302856D13EE022694DE061690120C6
:10A28000087047E0022B28D1042A26D84FF0010895
:10A2900069463046676902F0F3FA00281AD009E0EF
:10A2A0000B79226913FB00226846A84770B1387801
:10A2B000401C3870029820B1616838784A79904221
:10A2C000EED301987060029860BB02E04FF0000886
:10A2D000F7E7404604B0BDE8F081D4E904300F79D7
:10A2E000027817FB023349798A421BD2521C027052
:10A2F0001A46616810E008786169072A087009D178
:10A30000606801792069FEF7D4F860682169806887
:10A3100002F0D1FA2269616804B03046AC46BDE86B
:10A32000F04160470020D5E7F8DA070041690029CD
:10A3300001D0C0680847704710B508281BD2DFE875
:10A3400000F004121A1A1A041A040120FFF7B2FED0
:10A350000020FFF7E1FE0020FFF7DEFEBDE8104021
:10A360000020FFF7D1BE0020FFF7CEFEBDE8104071
:10A370000020FFF7D1BE10BD10B50446032806D05B
:10A38000042C04D0062C0ED0072C04D10BE0074976
:10A39000074800F073FB07480168002905D02046F4
:10A3A000BDE810400847FFF773FE10BDB1A70700D6
:10A3B000C0D40100B857002010B50446062802D1C9
:10A3C000002001F0B1F804480168002903D02046BC
:10A3D000BDE81040084710BDC45700204FF4A072DC
:10A3E00002EB810189B200F03FB90068D0F80405A2
:10A3F0007047000030B543791C4C44F82320427963
:10A40000231D03EBC20212790AB1082030BD026895
:10A410000C88C2F8084590F904208978002A4FEA90
:10A42000411106DA02F00F0202F1E02282F8141D57
:10A4300003E002F1E02282F8001490F904200124E4
:10A4400002F01F0504FA05F15209920002F1E02220
:10A45000C2F88012C2F80011417903EBC1010C71FE
:10A46000417943F83100002030BD00002858002019
:10A4700090F90400012100F01F0291404009800082
:10A4800000F1E020C0F8001270470A46022100F0F7
:10A49000E2B84FF4827100F0E7B800680121016072
:10A4A000704700680121416070470000F8B505461B
:10A4B00022F07F462A684FF480344FF4A0708C401D
:10A4C00000EB81001F4680B2C2F808432A68C2F838
:10A4D00048432A680023135010580090286800EB66
:10A4E0008101D1F84005C1F840652968D1F804150B
:10A4F000401A20F07F40012803D10E494FF4046038
:10A5000088472868C0F844432968D1F80405301A00
:10A5100020F07F40020201D540F07F407A42904215
:10A5200003DD022801DC0D20F8BDC1F80443002042
:10A53000F8BD0000F1D807002DE9FC4180461F4618
:10A5400015460E4600240D4800F0E6F938B11120FA
:10A55000BDE8FC8106EB043001F082FA641CAC42D9
:10A56000F8D1064800F0D5F9CDE90057334600226E
:10A570000221404600F02AF80020E9E73458002084
:10A580002DE9F843104D0F4680461E469146694618
:10A59000286800F092F9040014D01C21FDF789FF0F
:10A5A00001202071C4F81490380BC4F80080C4E96D
:10A5B00002606946286800F0A1F902F0A7FA0020BD
:10A5C000BDE8F8830420FBE724D907002DE9F04318
:10A5D00087B00446DDE90E8980681D4616460F46A1
:10A5E00000280BD018216846FDF763FF02A88DF8FC
:10A5F000007080E86003A1686846884707B0BDE83E
:10A60000F08330B50446006887B00D4680680028A6
:10A610001FD018216846FDF74CFF0195A0680590F2
:10A62000207910B1012810D107E001208DF8000039
:10A6300020690290E068039005E002208DF8000098
:10A64000E0680003029060690490206881686846B1
:10A65000884707B030BD0368C3F84413002A02D00E
:10A660000068C0F80413704708B5006842582AB162
:10A670000022425040580090012008BD002008BD33
:10A680000B2803D30B38C0B200F00AB870470000A3
:10A690000249002208780A7070470000E057002045
:10A6A000014908700B207047E05700200149012044
:10A6B00008707047BD5700200EB59DF8080020F0C7
:10A6C0000F00401C20F0F00010308DF808006846A4
:10A6D0006DDF002819D19DF80100401C8DF80100A4
:10A6E00068466CDF002810D10848007A800703D53F
:10A6F0000748011D806901E006A1072082B202A877
:10A700007CDF002801D105487ADF0EBDC857002044
:10A71000CC5C0020446675546172670096D70700D0
:10A720002DE9F04781461D4616468846494502D127
:10A730000020BDE8F087A8EB0900040B06F6FF70C7
:10A740004FF0000A070B00F09DFAA5422AD22C46D2
:10A7500028E0A74202D8BA46354601E0A2462503C2
:10A7600000225146484600F0F9FC0028E1D1681E5D
:10A7700000F003002A1A002341464846D21C00F08C
:10A7800003FD0028D5D10948A7EB0A07761B016B0A
:10A79000A94429440163A844002000F091FE5FEA27
:10A7A000000AC6D1002ED4D15046C2E7FC6E00206C
:10A7B000FFF76EFC0149416000207047F8D80700A0
:10A7C00010B50B4941600B4800F0A6F868B901F0DC
:10A7D00097FA08491C234FF4EE7208740448A1F557
:10A7E000EE71001F006800F055F8002010BD000059
:10A7F00028D90700E875002002480068002800D02A
:10A8000001207047345800200248007A002800D008
:10A8100001207047E875002070B5054608680C46B1
:10A820004A6886682846314601F066FF60682861FC
:10A8300004F10C00686170780221B1EB901F01D126
:10A84000241D2C6170BD000010B500224FF4805112
:10A85000104600F01BF950B908480022C0F5FC2151
:10A8600000F014F918B9064800F07EF908B101F0BB
:10A8700005FC00F0B1F8002010BD000000800700CA
:10A8800039A3070010B5FDF714FD08B1002010BD75
:10A89000112010BD10B531B1B2FBF3F403FB142449
:10A8A0001CB1092010BD0E2010BD016000214160C7
:10A8B00081608281C381084610BD70B50C46054693
:10A8C000FDF7ACFC002802D021882868084470BD40
:10A8D00010B50A8849888A4203D1FDF7E1FC0120BE
:10A8E00010BD002010BD70B50C460546FDF7BBFC41
:10A8F000002802D061882868084470BD10B50A8815
:10A9000049888A4203D1FDF7A5FC012010BD002033
:10A9100010BD002100F003B8012100F006B808B511
:10A920006A46FDF7F8FC009808BD08B56A46FDF7D1
:10A93000E5FC08BD38B5044600258DF80050684692
:10A94000FFF716F921686268086890420ED9401E28
:10A9500008600178238AE26801FB0325227A2168D6
:10A96000101AC0B20A79824200D208719DF8000024
:10A97000FFF722F9284638BD38B5054600208DF886
:10A9800000000C466846FFF7F3F8E868298A201AA9
:10A99000B0FBF1F12A681068431C136001709DF848
:10A9A0000000FFF709F938BD10B530B1017A4268EF
:10A9B0000368891AC9B21A6006E00E2010BD036848
:10A9C0001A68541C1C601170491EC9B2F7D2006885
:10A9D00000210171084610BD10B54FF0E0224FF084
:10A9E000FF314FF48054C2F88011C2F88012C2F8CF
:10A9F0008411C2F8841200F003FC2046BDE8104028
:10AA0000AFF3008070B505461A4888B0C0F5FE2146
:10AA1000002200F03BF8EFF30580D5E90045C005C2
:10AA2000C00D4FF0FF364FF0000181F3148881F321
:10AA3000108881F3118881F3138812D020220E49E7
:10AA40006846FDF71DFD203C2022694620460695FC
:10AA5000FDF716FDB21F31462046FDF7DBFB08B0BF
:10AA600070BD08B02A4631462046BDE87040FDF76B
:10AA7000D1BB00000080070018D607000A46014637
:10AA80000148006802F0DEBC38D60700F0B50A05C0
:10AA900002D1B0F5FE2F01D90720F0BD134D000BF8
:10AAA000491E124F01222E1D103700EB113407F101
:10AAB000040C17E04309C3F1000100EB411E02FA48
:10AAC0000EF106D0012B06D0022B06D0032B08D1A5
:10AAD00005E0296005E0316003E0396001E0CCF871
:10AAE0000010401CA042E5D90020F0BD0006004047
:10AAF00070B51A4D0024E86A2435012807D0A5282E
:10AB000008D0AA2809D0AC280AD0002070BDFEF7D2
:10AB10002DFF0BE002F0F8F807E0FFF767F805E01B
:10AB200002F0F2F808B9FFF761F80124284600F0B6
:10AB30002FFA0B49002008700A4800F0C1FC10B140
:10AB40000325284670BD0125002CFAD0012000F015
:10AB5000E1F90028F5D00225F3E70000FC6E0020A3
:10AB6000BD570020ADA6070070B53549086000202C
:10AB700000F07EFC00285ED1FFF7BAFF314C324D69
:10AB800020B101283BD0022855D120E030492F4E7A
:10AB900001200A68D20301D5000408E02949091DF3
:10ABA0000A6812F0A90F04D0086800F05600086087
:10ABB000002000F0AFF960B1206810F0B10F08D1AB
:10ABC000A86D012805D000F0F9FB98BB35E042F2F2
:10ABD000107600F057F81F4A20211820FEF75EFF7C
:10ABE00008B1FEF7E9FE206810F0B10F03D020682D
:10ABF00000F04E002060A86D012802D008E0FFF7A9
:10AC000047FA0020A86500F05BFC08B1FEF7D4FE0F
:10AC100000F0DCFA70B910493046FFF72FFF0F48FB
:10AC200000F0BEFA30B900BF00F01AF8FEF716FFC8
:10AC300041DFF9E7FFE7032070BDFFF7CDFEFAE73C
:10AC4000B85700201C050040FC6E0020C0D4010055
:10AC5000000400405C580020B1A7070079A307005A
:10AC600010B501F019F9002803D0BDE8104002F03A
:10AC700039BC10BD0A4601460148406802F0E2BBFB
:10AC800038D6070070B5154D2878002825D101F079
:10AC900003F9012600B312480068400900EB4000A8
:10ACA000840842F21070844201D2012000E00020AA
:10ACB000687002F017FC687820B90948083000680D
:10ACC000C00703D007492046FFF7D4FF4FF0E0212B
:10ACD0004FF48030C1F800012E7070BDBE570020C7
:10ACE0000405014021D5070040688068004770B521
:10ACF0000D4604464668FFF7F7FFB279294604F18E
:10AD00000800FDF7BDFB002070BDF8B51E461746D4
:10AD10000C460846069DFFF7E7FF00902B4632469B
:10AD2000394604F10800FDF77BFD08B10020F8BDAD
:10AD300048F24250F8BD000070B516460C46054674
:10AD400000F0D0F800280ED1AA791946304600F05C
:10AD5000D6F8002807D131462046FFF7C8FF002863
:10AD600001D10149216070BD7052464D2DE9F84F67
:10AD70006C460D46D4E90A68824699461746104942
:10AD8000284600F0A3F80028A54613D1686841467C
:10AD900040794200304600F0B2F80028A54609D1BB
:10ADA00057B182B04B463A46294650460096FFF7C7
:10ADB000ACFFA546BDE8F88F48F21050A546F9E76C
:10ADC0007052464D2DE9F0411D46DDE906871646D5
:10ADD000044600F02DF800280DD12A4631462046C1
:10ADE00000F03CF8002806D13A4641462046BDE82E
:10ADF000F04100F002B8BDE8F08170B515460E468E
:10AE0000044602F05FFB002807D13EB16068296864
:10AE1000C268914205D248F2145070BD48F21350F6
:10AE200070BD83682A4631462046BDE87040184709
:10AE300010B550B161B141600968044688470028E7
:10AE400002D105482060002010BD48F2015010BD1D
:10AE500048F2105010BD00006E52464870B51546BD
:10AE60000E46044602F02EFB00280BD146B155B128
:10AE700060682A46314643682046BDE8704018475E
:10AE800048F2105070BD002070BD00002DE9F04167
:10AE90000B480C4D0C4F401BC60801203870002495
:10AEA00006E000BF55F834008047002805D1641C37
:10AEB000B442F7D3022038700020BDE8F0810000D2
:10AEC0000000000000000000C057002028B100680A
:10AED000884205D048F24050704748F21050704701
:10AEE0000020704728B139B10022C1E90020104686
:10AEF000704748F21050704748F21350704720B125
:10AF0000914205D048F21150704748F210507047F6
:10AF10000020704710B50A4C216A01290BD160B19D
:10AF2000E06950B100F010F80022A169FFF724F9A0
:10AF3000E169814201D0002010BD012010BD000058
:10AF4000FC6E0020AFF300804FF44050074A416888
:10AF5000914207D18068411EC1F30B01401A00F6EF
:10AF6000FF7070474FF4805070470000DBE5B1512F
:10AF700000B5FFF7E9FF054989690A18401E084432
:10AF8000C0F30B00101A00F6FF7000BDFC6E00202D
:10AF90000021016041608160014801637047000049
:10AFA000FC6E00202DE9F0439946274C274F904630
:10AFB0000E460546002301215BB1012B12D0022B66
:10AFC0001FD00020381AA0F54050A8421CD2012200
:10AFD0001BE0FFF7CDFFB8F1000F10D0216A012967
:10AFE000F0D00CE0FFF7B0FFB9F1000F05D14FF43E
:10AFF0004051174A4968914201D00121E2E70021FE
:10B00000E0E74FF48050DDE7002242EA0600884383
:10B0100005D0022B03D25B1CDBB2022BCBD912B1C1
:10B020000420BDE8F0831BB107481830FFF7B0FFDC
:10B03000002020610120606103482430FFF7A8FF51
:10B0400000206562EDE70000FC6E00200080070034
:10B05000DBE5B15170B504460078092811D2DFE86C
:10B0600000F0100510112510381013000D461D4971
:10B070000320C9688847606900F0D0FAFFF700FB39
:10B08000687070BD084628E00D46A18A206900F06E
:10B09000A1FAFFF7F5FA68702846FFF75DF8E16856
:10B0A0000029EED02069BDE8704008470C460D49E4
:10B0B0000831081F00F0D0FAFFF7E2FA60700128AB
:10B0C000DFD1002000F0FCF90028DAD00A206070FF
:10B0D00070BD08464FF48071C160BDE87040FFF755
:10B0E0003BB80000E457002070B51A4A05780124E7
:10B0F000936C092D2CD2DFE805F02B052B0B0F2BC1
:10B10000252B080000F004FF22E000F077FF1FE08D
:10B110008B60106D48601BE0D2E91454566C2C1BF8
:10B12000A64203D008204870012411E00024556590
:10B1300054642146D36400F025FF07490420C96800
:10B14000884705E08B60106D48604FF48050C86000
:10B15000204670BDFC6E0020E457002013460A46CE
:10B160000146014800F092BB4858002008B103494D
:10B1700000E003490022034800F09EBB34D90700D9
:10B1800004D907004858002008B5009313460A4622
:10B190000146024800F028FC08BD00004858002085
:10B1A000084910B508600020FFF706F9064800F0CE
:10B1B000D5F9002804D1BDE81040034800F026B8B6
:10B1C00010BD0000C4570020B9A30700002070473D
:10B1D0001FB58908002201AB009283E8070068468A
:10B1E00018DF04B010BD00001FB5044B0FCB8DE875
:10B1F0000F00684618DF04B010BD000098D80700A3
:10B200004FF48050410408600020704710B50400DE
:10B2100011D00120FFF7AAFF00280BD100F0B8F9E8
:10B2200000F094FA48B10949081F00F015FA012806
:10B2300003D0032010BD072010BD04480838C460A7
:10B240000020FFF72DFA002010BD0000EC57002071
:10B25000816819B1024A1821FEF7B0BB0720704778
:10B2600065B20700AFF3008030B587B004461822FE
:10B2700031496846FDF704F920788DF800002278FE
:10B280002E4D0D2A55D2DFE802F0072D472D2D5403
:10B290002D252D21091C2900012018E04FF0805098
:10B2A000D0F800110191D0F804110291D0F80C11DE
:10B2B00089020491D0F81011890203910069059068
:10B2C0002AE06946204600F0F1FE25E0207C8DF85A
:10B2D000040021E0208AADF804001DE0E9680720A1
:10B2E000884719E020466946062A01D0012A01D183
:10B2F000027C2A702A78012A07D0022A08D000206E
:10B30000287005208DF8010006E0FFF7A3FE03E09A
:10B31000FFF7EAFE00280AD0D4E9011268469047F8
:10B320009DF80100012802D0E9680520884707B090
:10B3300030BD0220E6E70000C0D80700E457002037
:10B3400038B10549016005494160012101720020C1
:10B3500070470E207047000061B3070099B30700E3
:10B3600010B50C0001464FF0110007D02278052AD5
:10B3700005D2DFE802F00F050D0F0F000E2010BD03
:10B38000084600F051F80028F9D10221217010BDC3
:10B39000112010BD082010BD0246082041B10B78D5
:10B3A000022B04D1022A05D0032A00D111207047B4
:10B3B0000E207047002003220A70704770B50B48BA
:10B3C0000024D0F85C11491C03D1D0F89C01401C2A
:10B3D00009D04FF4FE25284600F042FB57220349CE
:10B3E000284600F055FB204670BD0000FC6E002092
:10B3F00010B528B11C220349FDF742F8002010BD0A
:10B400000E2010BD9CF1070010B5064C002218213B
:10B41000201DFEF7B1FE2168814201D1012010BD3F
:10B42000002010BD9CF1070070B50C4D0400D5F84C
:10B430009C0105F5CE7503D0401C03D0082070BDDB
:10B440000E2070BD00221821201DFEF795FE206001
:10B4500007222146284629DF70BD000000F00700C2
:10B46000002258210148FEF787BE0000006F00202F
:10B4700070B5FFF77BFEE0B94FF4DC752A460E4944
:10B480000E48FCF7FDFF0D4C2068401C06D0FFF76E
:10B49000E7FF2168814201D1002070BD294607489D
:10B4A000FDF707F801206060002000F009F800288F
:10B4B000F3D0032070BD000000F00700FC6E0020F8
:10B4C00070B504464FF4DC752A4612491248FCF761
:10B4D000FBFF30B1002201210E48FFF73FFEB0B95B
:10B4E00004E00CB10020A047002070BDFFF7B8FFBA
:10B4F00009492A460860A1F5DC70FCF7C1FF234624
:10B500002A4606490348FFF73FFE0028EDD00320F6
:10B5100070BD000000F00700FC6E0020446D0020AC
:10B520004FF48050704700002DE9F041074609486C
:10B53000094D401BC6080020044607E005EBC40087
:10B54000416838468847002802D1641CB442F5D3CC
:10B55000BDE8F081F4DB0700ECDB07002DE9F041EA
:10B5600007460948094D401BC6080020044606E06E
:10B5700055F8341038468847002802D1641CB4427C
:10B58000F6D3BDE8F0810000F4DB0700ECDB070038
:10B5900070B50B4C0B4DA06B30B101F067FE18B1CC
:10B5A000606A08B1012000E000202870FFF76EFCFF
:10B5B000BDE870404023044A04490548FFF7BCBB7E
:10B5C000FC6E0020F4570020D0D50700C072002088
:10B5D00058D607002DE9F0410F4C07460D46E06BA9
:10B5E000A26B01264119914201D9032610E00A49B4
:10B5F0002A465C3108443946FCF742FFE06B064AB4
:10B600002844E063403229463846FEF7B5FD206401
:10B610003046BDE8F0810000FC6E002070B50500EA
:10B620004FF0010404D0B5F5807F03D904240CE069
:10B6300003240AE006490020064E087020213063EA
:10B6400006F13800FCF735FFB563204670BD0000F9
:10B65000F4570020FC6E00202DE9F041374C0E46D7
:10B660000746D4E90E010125814201D0082561E099
:10B67000DFF8CC8098F8000028B1FFF779FC38603B
:10B68000606A306056E001F0F1FD98B32D4890F803
:10B690009C1009B9017869B3041D0021396031603B
:10B6A00090F89C300A462BB1264C90F83811A03403
:10B6B00004F1990294F8590001F04CFD0546012867
:10B6C00038D1201D00F0A4F80546012832D101230D
:10B6D00088F800300F2594F85910002019B994F813
:10B6E0006820012A07D0CA0708D094F85A20012AF6
:10B6F00003D003E01DE0E06E0DE0E06D89070AD5A0
:10B7000094F86010012906D10F4A616EC2F5FC223F
:10B71000914208D8084468B1002101250A463060EA
:10B72000FFF740FC08B1042504E0FFF721FC386076
:10B7300000E005252846BDE8F0810000FC6E0020F1
:10B74000F4570020B87000200080070001480078FE
:10B7500070470000F45700202DE9FE4306462848B4
:10B76000274D884690F89C00012708B1A43500E0D9
:10B77000083520200B46029002A92248CDE900019D
:10B7800032462149A0F59870FFF71CFB1F4C4FF083
:10B79000000930B9202205F16F011A48FCF794FE28
:10B7A00008B1172717E095F8550048B100F00101DE
:10B7B000C0F340023346284601F0FAF850B105E0E4
:10B7C0000120C4F82090E0626868A060A06CC4E921
:10B7D000098004E005270D482430FFF7D9FB0B480A
:10B7E00020213830FCF765FE0848FF22F4215C3048
:10B7F000FCF758FEC4F830903846A664BDE8FE83D6
:10B80000B87000206873002040D60700FC6E00204E
:10B8100070B5044690F85400012578B394F85500AB
:10B8200028B1012803D0022801D0032829D194F897
:10B830006D00032801D0142524E0207AF0B1E068DF
:10B84000342801D011251DE0204601F0BDFA70B169
:10B850002078002894F8550011D00B4948B10128F0
:10B8600007D06068C96888420CD810250AE0122504
:10B8700008E060688968884204D2F6E701E00128A0
:10B8800000D00F25284670BDFC6E00202DE9F04148
:10B890000446406815461E4602680F466A43204625
:10B8A000FEF707F8206833462A46D0F810C039461C
:10B8B0002046BDE8F041604701600B68114618471B
:10B8C0002DE9F04128B1016819B1C969BDE8F0411D
:10B8D00008470D4D0D480024461B14270DE000BFFE
:10B8E00004EB840005EB8000016829B1C969884731
:10B8F00010B10120BDE8F081641CB6FBF7F0A04256
:10B90000EED80020F6E70000485800205C580020E0
:10B91000044801214174007A08B1002070470120D9
:10B9200070470000E8750020012801D0032808D1E5
:10B930000449002201284A7400D00020087401F054
:10B9400097B87047E875002070B50146022801D00D
:10B95000032943D1224C207A00283FD0012831D03E
:10B9600002282FD11F4800230229006802D0032992
:10B9700028D119E0E360027912B1012A22D10BE04B
:10B98000D0E90565721B142A00D314222A4482616F
:10B990004569AA420ED015E00169491C016142695E
:10B9A00091420FD1237213E0E268521CE260082A30
:10B9B00008D9E360237202290AD00D21FEF721FE87
:10B9C00001F04CF8607C28B1BDE8704000F09EB9F1
:10B9D0000021F3E7BDE8704001F04AB870BD0000F7
:10B9E000E8750020385800202DE9F84304461D462C
:10B9F00016460F460846DDF82080FDF754FF304616
:10BA0000FDF751FF2A4639462046FDF752FFCDF893
:10BA1000008020682B463246D0F80CC039462046BC
:10BA2000E047BDE8F88370B541EA4201DDE904561C
:10BA30004FF0A04441EA830141EA052104EB800074
:10BA400041EA0641C0F8001770BD01224FF0A04343
:10BA5000824011B1C3F808257047C3F80C25704720
:10BA6000094902220A60BFF36F8FBFF34F8F0A1D8F
:10BA7000106006480268002AFCD000200860BFF36E
:10BA80006F8FBFF34F8F704704E5014000E4014022
:10BA900070B50E4C01232360BFF36F8FBFF34F8F40
:10BAA00000230B4D08E000BF51F8236040F82360ED
:10BAB0002E68002EFCD05B1C9342F5D30020206042
:10BAC000BFF36F8FBFF34F8F70BD000004E50140DF
:10BAD00000E4014020B1034909680160002070477B
:10BAE0000E207047CCDA0700FEB506460D46084624
:10BAF000FFF7F0FF002844D10024009401940127AF
:10BB000006208DF80060ADF8040002948DF80270F4
:10BB1000694620202A6869DF00948DF801708DF84D
:10BB20000240019402948DF80340694640202A683F
:10BB300069DF00948DF80060F720ADF802000194F1
:10BB40000294694623202A6869DF009401940294D4
:10BB50008DF80070694601202A6869DF4FF4B060F3
:10BB60000090019402946946A1202A6869DF00943C
:10BB7000019402948DF800406946A0202A6869DF8C
:10BB80000020FEBD60DF002802D1024A01211170B1
:10BB9000704700004358002030B51548ADF5017DD1
:10BBA0000078002821D04FF4FA7500BFADF800529C
:10BBB00080A9684661DF38B1052816D00DF5017DF2
:10BBC000BDE83040FDF7F8BE6C460A497DA800F09C
:10BBD000C9F806E0D0E90021204690477DA800F092
:10BBE000D8F87F980028E1D0F4E70DF5017D30BD4D
:10BBF00043580020D0DA0700F8B5134C2078C0B1C4
:10BC00000120A07001F006F9112814D0022001F0E3
:10BC100019F900258DF800506846FDF7A9FF11DFDE
:10BC2000064625709DF80000FDF7C6FF2EB1304690
:10BC3000F8BD0820F8BD0020F8BDA57001F0C6FAD7
:10BC4000032001F0FFF8F6E7405800207CB5204CB7
:10BC5000207808B108207CBD0120A070002001F0F0
:10BC6000D9F8112819D0002001F0ECF81948002665
:10BC7000006801908DF800606846FDF779FF16496D
:10BC800001A810DF05000AD0002020709DF80000F8
:10BC9000FDF792FF2DB128467CBD00207CBD012020
:10BCA000F3E7A67066700721162001F057F808B177
:10BCB000FDF782FE0721152001F050F808B1FDF7CD
:10BCC0007BFE01F09FFA012001F0BCF8E5E70000DF
:10BCD0004058002064DA0700B59907000EB50749FF
:10BCE000684600F03FF805E0D0E900108847684654
:10BCF00000F04FF802980028F6D10EBD80DA070058
:10BD000001480078704700004058002005488178BD
:10BD100019B1007818B1FFF76FBF08207047FFF71F
:10BD200095BF0000405800201FB568464BDF30B17A
:10BD3000052814D004B0BDE81040FDF73DBE084909
:10BD400001A800F00FF806E0D0E900210098904724
:10BD500001A800F01EF803980028E6D0F4E71FBD04
:10BD6000ECDA0700016009684160AFF3008010B5AC
:10BD7000D0E900215368994201D1002104E0D1E9C2
:10BD80000034A34202D01946816010BD08314160E1
:10BD9000F0E7816800290BD0026892680A4482604B
:10BDA00041684B689A4203D108314160FFF7DFBF19
:10BDB000704770B50D460646446804E0B2682946EF
:10BDC000904718B1246820680028F7D120682860BF
:10BDD000256070BD00687047406800687047416822
:10BDE0000868002801D002680A60704702460020F7
:10BDF000526806E08B4203D108681060012070474A
:10BE00001A461368002BF5D1704700002DE9F04168
:10BE100004461348134BC01A0C21B0FBF1F6A0697D
:10BE20004FF0FF3110F8022C02B92169002011E017
:10BE300000EB400503EB85052F68974209D14F1CA5
:10BE400002D06F688F4204D194E80F00AD68A84714
:10BE500003E0401CB042EBD301202060BDE8F0813C
:10BE600044DC070038DC070010B5144612680830BF
:10BE7000202A02D248F2145010BD012200F0F8FF2F
:10BE80000028F9D120202060002010BD083001F0EA
:10BE900077B8083001F034B902480068002800D0B3
:10BEA000012070470004014030B587B00C460546BC
:10BEB000182214496846FCF7E3FA207B0195124DDD
:10BEC0008DF80000012806D0022812D0062814D1CF
:10BED000607B049011E00D48FFF726FBA888E880FE
:10BEE000607B0490617CD4F80E0061F31F600590C4
:10BEF00003E0B4F80D00A880E8806846FFF7A8F9D1
:10BF000007B030BDE8D70700C8570020ECDB0700BA
:10BF10002DE9F0410C460546FFF718FC0826B8B19C
:10BF20006969032041B3154A154B0F0505D0576DBC
:10BF3000D3F808C00F4467451ED1B1F5805F01D921
:10BF4000042019E0506DD3F808C04718674502D99E
:10BF50006670BDE8F0815164D16C10659164106326
:10BF600069695A6801F6FF711044090B0022FFF756
:10BF7000F5F80028EDD005206070EAE7FC6E00209F
:10BF8000E457002030B5044687B00020FFF798FC46
:10BF900030B1154A18212046FDF710FD07B030BD1D
:10BFA000182212496846FCF76BFA1148026D1148D5
:10BFB00081688A420AD14068FFF7CEFB8DF8010004
:10BFC000FEF75EFB8DF801000B4D03E001208DF8BC
:10BFD00001000025D4E9011268469047002DDDD00C
:10BFE0002846FFF76DFAD9E785BF0700A8D80700F4
:10BFF000FC6E0020E457002071C0070070B50E46AB
:10C000000446FFF7A3FB58B1174DD5E91401401AB8
:10C01000A28A696C1044884204D90320707070BDF4
:10C020000820FBE71149286B49680844D4E903312B
:10C03000FFF7AAF820B1D4E90310BDE87040084723
:10C04000A18A286B084A08442863A18A286D4832CF
:10C0500008442865A18A2069FEF78EF8A864B060BC
:10C06000286D706070BD0000FC6E0020E457002059
:10C0700001490620C9680847E4570020BFF34F8FE5
:10C0800005480168054A01F4E06111430160BFF30E
:10C090004F8F00BFFDE700000CED00E00400FA0543
:10C0A00001460148FEF768BCF4DB07002DE9F041CA
:10C0B0004FF440520C46204E536801214FF0020CC1
:10C0C000B34200D102211D4D2B6A012B00D1491C26
:10C0D00001276770037C1BB10020012B09D01BE0F6
:10C0E00084F804C0E868A0601548E060C0F5FC2052
:10C0F0000FE0D2F804C0B4450ED120711078142896
:10C1000001D9506900E00020A0604FF48050E06049
:10C1100090682061BDE8F0818B4207D22771A86842
:10C12000A060FEF70FFFE060A869F2E7FF21217130
:10C13000A060E060EDE70000DBE5B151FC6E00209F
:10C140000080070030B58A1D8B79083187B0022B3B
:10C1500033D153888489A3422FD1127A012A2CD15A
:10C16000184C0DF1040C3CCC8CE83C000A89ADF86D
:10C170000C204A890C3104911249ADF80E20803907
:10C18000114C096A0591CDF818D0018A05AA60887A
:10C19000ADDF18B96846FDF777FF38B10020ADF87C
:10C1A000080001A96088B0DF50B106E040F2FD1040
:10C1B000ADF8080001A96088B0DF002007B030BDED
:10C1C0000120FBE700D80700C8570020F8B50D464E
:10C1D00014460646694600F057FA00280ED0009B28
:10C1E000FF2B0AD8581C834207D869780222B2EB89
:10C1F000911F02D02979814201D20020F8BD23701D
:10C20000611C3046009A00F069FBF8BD114600F051
:10C21000D6B8114600F0E3B8F8B50C461546064608
:10C22000694600F031FA00280CD0009A501C904268
:10C2300007D361780223B3EB911F02D021798142A9
:10C2400001D20020F8BD2946304600F047FB009A95
:10C250000021A954F8BD2DE9FF410C468E68174610
:10C260000546694600F00CFB00280ED0A0680028A7
:10C270000BD060783A46C0F3011002283146684678
:10C2800006D000F0DBF80199696004B0BDE8F081E8
:10C2900000F086F8F7E77CB50D461446694600F0D5
:10C2A00090F9002820D02879082806D0042809D041
:10C2B00002280AD001280CD015E0DDE90001C4E90C
:10C2C00000010AE00098206006E0009800B220809B
:10C2D00002E0009840B22070C117DDE90023504011
:10C2E0005940084301D000207CBD01207CBD7CB5B5
:10C2F0000D461446694600F0A2F9002820D028799E
:10C30000082807D00021042809D002280AD00128D3
:10C310000CD014E0DDE90001C4E9000109E0009857
:10C32000206006E0009880B2208002E00098C0B251
:10C330002070DDE9002350405940084301D000201F
:10C340007CBD01207CBD7CB50D461446694600F0DD
:10C3500076F9002821D02979082908D00098C21739
:10C3600004290BD002290DD001290ED014E0DDE9FB
:10C370000002C4E900020146134609E0C317014662
:10C38000206005E001B2218001E041B22170CB17AD
:10C3900041405340194301D000207CBD01207CBDA9
:10C3A00070B50D46064614461146284600F083FA3D
:10C3B000224629463046BDE8704000F03FB838B507
:10C3C0000C460422694600F089FA002806D09DF840
:10C3D0000310009861F31F602060012038BD1CB578
:10C3E0000C460822694600F079FA002824D09DF80E
:10C3F00001109DF800209DF80230080E42EA01224B
:10C4000042EA034240EA13409DF803309DF80410CD
:10C4100040EA132008439DF8051042EA036240EA0F
:10C4200001209DF8061040EA01409DF8071040EAFF
:10C430000160C4E9002001201CBD00002DE9F04F7F
:10C4400004469DB000200090064601904FF0FF3A50
:10C450000AA800F051F94FF0010BE94682E012AB57
:10C4600005AA06A9204600F0C9F850B10AA8059906
:10C4700000F053F960B10B98407810F0300F53D0B2
:10C4800060E09DF84800002870D11DB0BDE8F08F35
:10C490000598B04242D30B9D0AAE0B98407800F04D
:10C4A0000F00082812D0304600F04EF90B98A84231
:10C4B000F3D156460599B14230D3D4F8088009919A
:10C4C0009DF8181008910E990D6820E00B980678D9
:10C4D000F0E729680F682FB1DDE9083229462046C8
:10C4E000B84711E011948968DDE908720978914232
:10C4F0000CD1294617A8FEF78FF985F80CB017AABA
:10C5000039461198FDF795FE0028BED0AD6815B1EB
:10C51000A1684145DDD0A168414523D19DF818109F
:10C52000204600F017FA1BE00C9840280AD200F0D1
:10C530001F010BFA01F00C994A0959F82230034304
:10C5400049F82230E5682DB10AAB9DF81820204645
:10C550000599A8470AAA9DF818102046FDF769FE1C
:10C56000002892D0A06800287FF479AFDDE90B04A1
:10C5700045780AA800F0E8F80028F7D115F0300F48
:10C5800003D10B98007800B1641CC4B10020494667
:10C5900005E000BF51F82020521C0ED1401CB0EB2A
:10C5A000541FF7D3600959F8201004F01F00C0F1A0
:10C5B00020022AFA02F0814201D0002065E7012022
:10C5C00063E71CB50C46694600F039F8002814D022
:10C5D000DDE90002C10709D051084FEA30006FEAD7
:10C5E00000026FEA0100C4E9002004E051084FEAAC
:10C5F0003000C4E900014FF001001CBDF8B507464A
:10C600000020187008700E4610601C4615466946DA
:10C61000384600F039F801004FF0010009D00099C8
:10C6200059B1C8082860009800F007003070012058
:10C63000F8BDB96809B10020F8BD2070FBE72DE90D
:10C64000F8430026884681463446354604E0402EAD
:10C6500002D30020BDE8F8836946484600F06AF935
:10C660000028F7D09DF80070324607F07F00C10F18
:10C67000FBF7F7FE29430443F61D0D463806E6D4C2
:10C68000C8E900410120E5E7F8B50E4607466946CE
:10C6900000F050F900280AD09DF80040200616D579
:10C6A000072504F07F0403E0202D01D30020F8BD0E
:10C6B0006946384600F03EF90028F8D09DF8001091
:10C6C00001F07F00A8400443ED1D0806ECD40120D2
:10C6D0003460F8BD5968064A8968914206D1D0E9AC
:10C6E0000110044A401E491CC2E9011070470000B5
:10C6F0008CD60700F4570020C26000230160C0E917
:10C7000001138B781A44026191F903301A44426193
:10C710000878002800D00120704770B545680E46A3
:10C72000044660680178B14206D1407800F00F00FD
:10C73000082801D0012070BD204600F005F860688F
:10C74000A842EED1002070BD30B541680A785AB1D8
:10C7500001F10C0343600A7B42B14C780A79C4F3BF
:10C760000115032D07D00BE0002030BDC268016821
:10C77000FFF7C2FFF8E75D78C5F30115032D07D079
:10C780000225B5EB141F09D14C7914FB02F209E024
:10C790008D7804690022641B046103E0B5EB941FEB
:10C7A00000D10422497811F0300F02D18168491C70
:10C7B00081609C78016921441144016193F903204F
:10C7C00011444161012030BD30B54168002487B07B
:10C7D000497801F00F02082A11D08A091ED00222DE
:10C7E000B2EB911F09D10269C1F301110229146052
:10C7F00001D0032901D14069047007B030BD006940
:10C80000056808E02C7329466846FEF705F8684677
:10C81000FFF7DAFFAD68002DF4D1EEE7C1F30111A7
:10C82000012912D00229E6D00329E4D042685178C8
:10C8300001F00F0107290BD0916881B112790069CD
:10C8400007B0BDE83040FBF71BBE41690C70EDE757
:10C850000169906807B0BDE8304000F02CB811794C
:10C86000006907B0BDE83040FBF723BE10B5034BAD
:10C87000002408C080E8160010BD00003BA107009E
:10C8800038B50D4604466946FFF7FEFE00280BD07A
:10C89000D4E90002D4E90213C5E90002C5E9021394
:10C8A0000098814201D2002038BDA860A168081A12
:10C8B000A060012038BD00B50A4687B00146684631
:10C8C000FFF71AFF002807D06846FFF77DFF68468C
:10C8D000FFF73AFF0028F7D107B000BD7FB5144637
:10C8E0000546A9B9124A2868904208D110E01022E2
:10C8F00069462846FFF7F2FF002807D0103C102CAD
:10C90000F5D8224669462846FFF7E8FF04B070BD17
:10C91000A868A04201D20020F8E72B6822462846EA
:10C9200098470028F2D0A868001BA8600120EDE716
:10C930003BA1070010B504468068002809D0236891
:10C94000012220469847002803D0A068401EA0601E
:10C95000012010BD38B5002439B1012912D00229B7
:10C9600012D005291DD0002038BD05460122694698
:10C970002846FFF7B3FF90B19DF800000006F5D4FC
:10C98000012038BD08220DE005466946FFF77CFE10
:10C9900028B100212846009AFFF7A0FF38BD2046A5
:10C9A00038BD0422BDE838400021FFF797BF0000E2
:10C9B0002DE9F041264C1546064679B303F50053A0
:10C9C00024495A68B06D8A4230D1421EC2F30B022C
:10C9D000801A41F6FF729F681044874226D34FF4B5
:10C9E000405042688A4202D04FF0010101E04FF00E
:10C9F000000114D10178142901D9416900E0002116
:10CA000015481A78B1FBF0F1142A01D95A6900E0EF
:10CA10000022B2FBF0F0814202D10AE011E041B104
:10CA200025B10B481830FEF7B3FA03E00020BDE84B
:10CA3000F0810DB1AC2000E0A520E062B06D606334
:10CA400001E0AA20E0620DB17068E0600120EEE72D
:10CA5000FC6E0020DBE5B15140420F000348024963
:10CA60000068FDF735BF00003C58002024D90700BE
:10CA70002DE9F041224C0025224E207A012730B9C1
:10CA80002148311D0068FDF72EFF306038B10220CB
:10CA900020723168087928B101281CD114E0656042
:10CAA000BDE8F081D1E90503C01A142800D3142091
:10CAB000B7EB900F01D2820800E001220869C96833
:10CAC0001844194429DF03E0D1E90301084428DFB1
:10CAD00058B1112812D003213068FDF792FD25725C
:10CAE0006560BDE8F041FFF7B9BF207C0028D7D1D1
:10CAF000BDE8F04100210220FEF726BF2772CFE7F4
:10CB0000E87500203858002024D9070010B5074CDC
:10CB1000201DFDF701FF002806D1607C002803D10D
:10CB2000BDE81040FFF7A4BF10BD0000E87500206D
:10CB300010B510461A46FBF7A3FC002010BD10B537
:10CB400010461A46FBF79CFC002010BD2DE9F04171
:10CB50001E681C461546074621B1012918D0052933
:10CB600023D119E000202060401C2060B0421CD876
:10CB7000012229463846FFF7B1FE002806D015F8F5
:10CB8000010B000601D52068EEE70120BDE8F08129
:10CB900008200246186002E0042002461860294678
:10CBA0003846BDE8F041FFF799BE0020EEE770B5CA
:10CBB00016460A460446C11C104600F061FC0546B4
:10CBC00061193046C91C00F05BFC284470BD0000B0
:10CBD00003B5094A85B0D2E91612CDE9001207491A
:10CBE0008989ADF8001006A9CDE90210044869460C
:10CBF0004088AEDF07B000BD80D70700E85C0020AA
:10CC0000C857002008467047084670472DE9F04194
:10CC10008046FDF73EFC1A4D0026F0B1686828B149
:10CC200068684068696820F07F40486000F012FB47
:10CC3000040012D04FF080776068B84203D22046DB
:10CC400000F042FB03E0606820F07F406060204617
:10CC5000FFF7C0F808B10446EEE700214046FDF7B3
:10CC6000BDFB28B1686818B1686800F02DFB6E60E4
:10CC7000404600F079FB4046BDE8F04100F002B8C4
:10CC8000145800202DE9F0411D4C0746002600BF36
:10CC900000F0E0FA60B341686068406862685AB1C9
:10CCA0006268002A22D0884220D96068007D18B1CD
:10CCB00061681448FFF77DF800F0D2FA4268054633
:10CCC0000F484FF47A7300210830FDF7EFFB28B1CD
:10CCD0000D28DDD1284600F0F7FAD9E7606810B9D1
:10CCE0003846FDF7DAFB6560002ED1D1BDE8F08152
:10CCF00060680028FAD13846BDE8F041FDF7D1BBA5
:10CD000014580020E0D8070070B5FEF709FC114A5E
:10CD1000114E136B546B916CE21A551EC5F30B0543
:10CD2000521B42F2040518446D5802F6FF72B542D8
:10CD300001D0032070BD1944A34201D1002070BD71
:10CD40000823FDF7EDFC0028F9D1BDE87040FEF79F
:10CD5000B7BB0000FC6E0020DBE5B15170B50D469D
:10CD60000446FCF783FD70B12846FCF791FD68B1DD
:10CD70006807000E002C0CDA04F00F0101F1E0212D
:10CD800081F8140D09E042F2010070BD42F2020088
:10CD900070BD04F1E02484F80004002070BD0000A0
:10CDA00070B50346002002464FF4405409E000BF2E
:10CDB00053F82250A689B54201D1012070BD521C02
:10CDC000D2B28A42F4D370BD4FF44051104B4A683E
:10CDD000017C9A4213D100F1140209B143694BB9A5
:10CDE00090F8553013B1012B07D10BE0012904D97C
:10CDF000406910B91046FFF7D3BF0120704719B141
:10CE0000416909B10020704700780028F5D17047CA
:10CE1000DBE5B1513EB5044609496846FEF7A2FF7D
:10CE200008E000BFD0E900212046904730B16846B5
:10CE3000FEF7AFFF02980028F4D13EBD11203EBDA1
:10CE400068DA07003EB5044608496846FEF78AFFDF
:10CE500007E000BFD0E90021204690476846FEF772
:10CE600098FF02980028F5D13EBD000074DA070053
:10CE700070B516460D46040007D035B1206C8022EF
:10CE800000213828225403D307E00E2070BD21541E
:10CE9000401C3828FBD30BE02154401C4028FBD316
:10CEA0002146084600F096F838212046FBF701FBA2
:10CEB000216CD4E912304A0FC90038345918504156
:10CEC000C4E90410227CE2710A0A42EA0062A271FB
:10CED0000A0C42EA00426271020242EA11602071C9
:10CEE0006069E070010AA170010C6170000E04F825
:10CEF00038092146084600F06DF84FF00002EEB107
:10CF0000E06ED100C840A854A36ECB40A8180371AE
:10CF1000636ECB400372236ECB400373E36DCB4053
:10CF20000374A36DCB400375636DCB400376236D13
:10CF3000CB40521C0377042AE2D31FE0182350424F
:10CF4000216D03EBC000C140A954666DC640A9180D
:10CF50000E71A66DC6400E72E66DC6400E73266E4B
:10CF6000C6400E74666EC6400E75A66EC6400E763E
:10CF7000E66EC640521C0E77042AE0D3002070BD36
:10CF8000A8B100210164C0E912110A4901650A49EA
:10CF900041650A4981650A49C1650A4901660A492C
:10CFA00041660A4981660A49C166002070470E2021
:10CFB0007047000067E6096A85AE67BB72F36E3C96
:10CFC0003AF54FA57F520E518C68059BABD9831F54
:10CFD00019CDE05B2DE9F04FC8B0002213466F4633
:10CFE000CC181B1D2568E4782DBA25F0FF052543D4
:10CFF00047F82250521C102AF2D31BE007EB8201A3
:10D0000051F8083C4FEA734484EAF34484EA9324D9
:10D0100051F83C3C4FEAF31585EAB34585EAD30362
:10D02000234451F81C4C51F8401C2144194447F842
:10D030002210521C402AE1D3036D4793416D469163
:10D04000846D4594C26D44929246026E4392456E41
:10D050004295A946856E4195C66E4096B346002618
:10D060004FEAB21787EAF22787EA726C02EA0907E9
:10D0700025EA020887EA0807BC44204F57F82680B3
:10D0800008EB0B07BC445DF82670AB460CEB070EB3
:10D090004FEAB30787EA733787EAB35C81EA04078C
:10D0A0004D4601EA040891461F400AEB0E02A246D3
:10D0B00087EA08070C46BC441946761C0EEB0C03A5
:10D0C000402ECDD3479E33440365469B19444165AA
:10D0D00045992144816544995144C165439911445E
:10D0E00001664299494441664199294481664099C3
:10D0F0005944C16648B0BDE8F08F000054D907001C
:10D100002DE9F04116460F46040004D006B317B1CE
:10D110000025A8461AE00E20BDE8F081216C785D5C
:10D120006054206C401C206440280ED121460846E3
:10D13000FFF750FFD4E912014FF40072801841F15B
:10D140000001C4F84080C4E912016D1CB542E5D36A
:10D150000020E1E73EB54FF020001400029002D01D
:10D1600019B116203EBD13203EBD02A91348CDE9DA
:10D17000000113481349D0E901231348FDF722FEAB
:10D1800010B92278402A01D00A203EBD0B48611C0C
:10D190004038FBF775F9094840214038CDE90001D6
:10D1A000A0F148010648054A0C30029BFDF7DEFD60
:10D1B00008B105203EBD01203EBD0000487300209F
:10D1C000F457002040D607003872002010B5162012
:10D1D000FCF74CFB48B10A4882684FF4800152B119
:10D1E000016821F48001016010BDBDE8104042F2E9
:10D1F0000100FCF7E1BB4FF0E020C0F8801110BD4A
:10D20000F073002010B51620FCF730FB80B10F48FA
:10D2100090F800044009FCF73BFB60B10C488268C1
:10D220004FF480016AB1016841F48001016010BDD2
:10D2300042F2010001E042F20200BDE81040FCF7BA
:10D24000BBBB4FF0E020C0F8001110BD16E000E0BD
:10D25000F07300200148FEF7BFBD0000E0D80700D2
:10D260000148FEF7BCBD0000E0D807001FB50E481E
:10D2700000F15C01826B6846FFF7F8FA0B489DE805
:10D280000E0080E80E00094909480B4AC8600949A8
:10D2900000204860886009490448FFF781F80028A9
:10D2A00000D0012004B010BDFC6E0020B072002040
:10D2B000D5C60700F4570020B870002058D70700E3
:10D2C000002800D00047704770B504460D4800257F
:10D2D0000078A0B19CB1207D88B1D4E903108847C3
:10D2E000A06850B1217D41B1616808446060214669
:10D2F0000548FEF75EFD012501E000202075284667
:10D3000070BD000014580020E0D8070070B5114C23
:10D31000207800281DD1104801680125C1F3004183
:10D3200031B90E490D600168C1F300410029FAD0FE
:10D33000FCF7D6FB08B1FCF73FFB094A002109487E
:10D34000FCF7C2FB0748064A0121001DFCF7BCFBA5
:10D35000257070BDBC570020180400400800004034
:10D36000C1D2070038D607002DE9F843244D814685
:10D3700069462868FDF7B7FA044600274FF0010810
:10D38000204E39E0207820B101281BD002282AD174
:10D3900022E06068017D31BB80F814804846FDF7CB
:10D3A00024F8014660684268511A174A914203D92D
:10D3B000416821F07F414160114861680830FEF703
:10D3C000F8FC10E061687068814200D177600C4819
:10D3D0000830FEF70BFD06E0FFF742FF08B10775C6
:10D3E000FAE786F8008069462868FDF771FA694611
:10D3F0002868FDF778FA0446002CC3D1BDE8F8830D
:10D40000D8D807001458002017FCFF00F8B50B4CC3
:10D410000D46064669462068FDF74FFA58B106707A
:10D42000456069462068FDF769FA10B10448FDF7C8
:10D430001FF80020F8BD0420F8BD0000D8D8070070
:10D440001C58002070B515460C460646FFF75EFFD7
:10D450003046FCF787FB002C11D0610CE0034FF441
:10D46000FA72801841F1000152000023FAF7C8FF58
:10D4700001462A463046BDE87040FCF757BB70BDF8
:10D480000870020A4A70020C8A70000EC8700420EC
:10D490007047000010B50248FDF73BFA002010BDB0
:10D4A0003458002010B514210448FBF702F8044852
:10D4B0000068FDF7E7F9002010BD0000E8750020C6
:10D4C00024D9070030B100680549884205D048F2E8
:10D4D0000250704748F2015070470020704700002A
:10D4E0006E52464870B5FEF7D7FC002811D00020D8
:10D4F000084A094B094C0121166801FA00F52E4231
:10D5000003D004EB8005C5F80036401CC0B20728E4
:10D51000F2D370BD080501403546526E000001404F
:10D5200003484078002801D0FFF7DCBF70470000B7
:10D53000BE57002000207047002070472DE9FC41B5
:10D5400080461C4617460E460C48089DFDF7E4F938
:10D5500010B11120BDE8FC81A20839463046FEF723
:10D5600097FA0648FDF7D5F933463A460121404679
:10D57000CDE90045FDF72AF80020EBE734580020FC
:10D580002DE9F84F114D884681461E4617466946DB
:10D59000DDF828A02868FDF790F9040013D01C21BD
:10D5A000FAF787FF00202071C4F80090C4E90486D0
:10D5B000C4E902A769462868FDF7A0F9FFF7A6FAB3
:10D5C0000020BDE8F88F0420FBE7000024D9070005
:10D5D000A1D85074C4B4FA15DB91BAD38F77F8523E
:10D5E000E650974D74D522DE34AD5817CFCC0F6C72
:10D5F000E3EAA698295303BE5D099A40C56C9335AA
:10D60000CB6E3E07469963FE8015BD8A1EF47B569D
:10D61000111213140D0E0F10000000000000000086
:10D62000000000000000000000000000FFFFFFFFFE
:10D6300000000000000000017C5C0020945C0020E1
:10D640008DBE070093BE070069BE070020000000E2
:10D650007800000000000000280048000020400082
:10D66000198807000000000001010000010000000F
:10D670000000000002050000210000000000000082
:10D68000000000000000000000000000011104FC88
:10D690000400000000000000021104FC040000006F
:10D6A00000000000032104FC041000000000000042
:10D6B000041101FF0100000000000000051102FE3E
:10D6C0000400000000000000061104FC040000003B
:10D6D00000000000071104FC04000000000000002E
:10D6E000081701FF2200000068D60700091001FF9B
:10D6F0000100000064D607000000000000000000E8
:10D7000000000000011101FF010000000000000006
:10D71000021702FE940000008CD6070000000000F3
:10D720000000000000000000010700009800000059
:10D7300004D7070002010000010000000000000003
:10D740000305000041000000000000000000000090
:10D750000000000000000000011704FC9800000019
:10D7600004D70700021704FCDC00000028D70700DC
:10D7700000000000000000000000000000000000A9
:10D78000001103000011130002000000010000005E
:10D790000338FDD870470C000C0000005802000050
:10D7A0000200000000000000020000000000000075
:10D7B000AC5C002009000000000000000000000038
:10D7C0000100000000000000280000000000000030
:10D7D0000000000000010000000001000000000047
:10D7E0000000000000000000000000000000000039
:10D7F000019D070000000000000000000000000084
:10D800000200000000000100000000000000000015
:10D810000800000000000000019D0700A1C00700F3
:10D8200000000000000000000400000000000000F4
:10D8300000000000000000000000000000000000E8
:10D8400000000000000000000000000000000000D8
:10D85000F4000000000000001800000000000000BC
:10D8600000000000000000000000000000000000B8
:10D8700000000000000000000000000000000000A8
:10D88000170000000000000050EADA308883B89FDB
:10D89000604F15F30000C98E020000000000000078
:10D8A0000000000000000000040000000000000074
:10D8B0000000000000000000000000000000000068
:10D8C0000001000000000000000000000000000057
:10D8D0000000000000000000887300200000070026
:10D8E000000000002458002069A10700000000008B
:10D8F0000338FDD87047000000100000040000004D
:10D9000001000000B5A7070095D4070031CB070040
:10D910003DD5070039A5070005CC070035D5070020
:10D92000F9A70700FC7300200010000004000000AD
:10D9300001000000C1A70700A5D407003FCB0700E6
:10D9400081D5070081A5070009CC070039D507005C
:10D9500009A80700982F8A4291443771CFFBC0B5C0
:10D96000A5DBB5E95BC25639F111F159A4823F92AA
:10D97000D55E1CAB98AA07D8015B8312BE85312403
:10D98000C37D0C55745DBE72FEB1DE80A706DC9BC4
:10D9900074F19BC1C1699BE48647BEEFC69DC10F70
:10D9A000CCA10C246F2CE92DAA84744ADCA9B05CAC
:10D9B000DA88F97652513E986DC631A8C82703B06F
:10D9C000C77F59BFF30BE0C64791A7D55163CA067D
:10D9D00067292914850AB72738211B2EFC6D2C4D89
:10D9E000130D385354730A65BB0A6A762EC9C28177
:10D9F000852C7292A1E8BFA24B661AA8708B4BC20D
:10DA0000A3516CC719E892D1240699D685350EF436
:10DA100070A06A1016C1A419086C371E4C774827ED
:10DA2000B5BCB034B30C1C394AAAD84E4FCA9C5B63
:10DA3000F36F2E68EE828F746F63A5781478C884B4
:10DA40000802C78CFAFFBE90EB6C50A4F7A3F9BE96
:10DA5000F27871C610DC070018DC07000000000037
:10DA6000000000000100000754DA070064DA070034
:10DA7000080000008CDA07009CDA070008000000AC
:10DA80009CDA0700ACDA07000800000030DC070071
:10DA900038DC0700000000000000000020DC070068
:10DAA00030DC070000000000000000000000000063
:10DAB00000000000000000000000000008DC07007B
:10DAC00010DC07000000000000000000B857002034
:10DAD000ACDA0700CCDA07000800000018DC070009
