:020000040002F8
:10600000E8A30020956402009D640200B5620200CE
:10601000A1640200A3640200A56402000000000065
:1060200000000000000000000000000015620200F7
:10603000A96402000000000059620200AD64020081
:10604000196F0200AF640200057502008171020041
:10605000AF640200AF640200816A0200D96F0200DF
:10606000AF640200AF640200AF640200AF640200DC
:10607000AF640200AF640200AF640200AF640200CC
:1060800011750200716F0200AF640200AF6402007C
:10609000AF640200AF64020091710200AF640200BD
:1060A000AF640200AF640200AF640200AF6402009C
:1060B000AF640200AF6402000000000000000000B6
:1060C000AF640200AF640200AF640200AF6402007C
:1060D000AF640200AF640200AF6402000000000081
:1060E00000000000000000000000000000000000B0
:1060F00000000000000000000000000000000000A0
:10610000000000000000000000000000000000008F
:10611000000000000000000000000000000000007F
:10612000000000000000000000000000000000006F
:10613000000000000000000000000000000000005F
:10614000000000000000000000000000000000004F
:10615000000000000000000000000000000000003F
:10616000000000000000000000000000000000002F
:10617000000000000000000000000000000000001F
:10618000000000000000000000000000000000000F
:1061900000000000000000000000000000000000FF
:1061A00000000000000000000000000000000000EF
:1061B00000000000000000000000000000000000DF
:1061C00000000000000000000000000000000000CF
:1061D00000000000000000000000000000000000BF
:1061E00000000000000000000000000000000000AF
:1061F000000000000000000000000000000000009F
:10620000DFF80CD000F0CAFA0048004739C5020098
:10621000E8A30020264B19680868B0E8F04F80F327
:106220000988BFF36F8F4FF0000080F3118870472B
:10623000000000000748006880F3088862B661B675
:10624000BFF34F8FBFF36F8F4FF4F07080F311885F
:1062500000DF000000600200EFF30980BFF36F8FE2
:10626000134B1A681EF0100F08BF20ED108A20E9AA
:10627000F04F106008B44FF0400080F31188BFF376
:106280004F8FBFF36F8F0FF043F94FF0000080F393
:10629000118808BC19680868B0E8F04F1EF0100FAC
:1062A00008BFB0EC108A80F30988BFF36F8F704786
:1062B000542C0020094B1EF0040F1CBFEFF3098083
:1062C0001847EFF308800649064A884201D89042F1
:1062D00002D88D464FF00000184700001D6C0200E8
:1062E000E8A30020E89B002030B450E8012F93B2CF
:1062F000C48923448489A34228BF1B1B0489A34269
:1063000002BFBFF32F8F002007E0C3EA020340E87B
:106310000134002CE9D14FF001000A6030BC704715
:1063200050E8012FC2EA024240E801210029F7D1DA
:10633000704730B450E8022F1FFAA2F3C488A3427A
:1063400002BFBFF32F8F00200DE0C489234484894E
:10635000A34228BF1B1BC2EA034340E80234002CBF
:10636000E8D14FF001000A6030BC704750E8022FBE
:10637000C2EA224240E802210029F7D170470346D1
:1063800053E8022FD988B2EB324F4FF0000017BF0D
:1063900092B241EA014142EA014104E05A68B2EB9B
:1063A000324F08BF012043E80212002AE8D17047AB
:1063B00030B4044654E8000F0D4644E80053002B67
:1063C000F8D1156030BC704730B4044654E8000F73
:1063D00040EA010544E80053002BF7D1156030BCBA
:1063E000704730B4044654E8000F00EA010544E861
:1063F0000053002BF7D1156030BC704730B4044611
:1064000054E8000F80EA010544E80053002BF7D15F
:10641000156030BC704730B4044654E8000F00EB00
:10642000010544E80053002BF7D1156030BC7047DC
:1064300030B4044654E8000FA0EB010544E80053D3
:10644000002BF7D1156030BC704770B404464FF094
:10645000000054E8006F0D68AE4207BF44E8002317
:10646000012044E800630E60002B1CBF0020F0E711
:1064700070BC704730B4044654E8000F88422CBF0B
:10648000451A054644E80053002BF5D1156030BC91
:10649000704700000648804706480047FEE7FEE7D1
:1064A000FEE7FEE7FEE7FEE7FEE7FEE7FEE7FEE7C4
:1064B000E971020001620200202A04DB203A00FA9E
:1064C00002F1002070479140C2F1200320FA03F34B
:1064D000194390407047000000487047406A03002D
:1064E00040EA01039B0703D009E008C9121F08C056
:1064F000042AFAD203E011F8013B00F8013B521ED6
:10650000F9D27047D2B201E000F8012B491EFBD24C
:1065100070470022F6E710B513460A4604461946AE
:10652000FFF7F0FF204610BD421E12F8013F002B7E
:10653000FBD111F8013B02F8013B002BF9D1704768
:1065400030B505462A460B4612F8010B13F8014BED
:1065500008B1A042F8D01CB1002802D06D1CF1E7B0
:10656000284630BD10B5044604E00B7800F8013B26
:1065700003B1491C521EF8D2204610BDCAB2401EBB
:1065800010F8011F8A4202D00029F9D1002070477B
:10659000421C10F8011B0029FBD1801A704730B54E
:1065A00004460020034600E05B1C934203D2E05CFB
:1065B000CD5C401BF8D030BD034611F8012B00F82C
:1065C000012B002AF9D118467047000070B50F4D15
:1065D00000B92868002412E00A4602E09E4203D077
:1065E000521C1378002BF9D1DAB2224305D02BB11B
:1065F00024B1002100F8011B04E00446401C067889
:10660000002EE9D12860204670BD00004C2E0020ED
:106610002DE9F04791460F4680460446002614F8BF
:10662000015B2DB1FFF758FF0068405DC007F6D150
:106630002B2D02D02D2D18D0641E4A4639462046F7
:1066400000F05CF827B13968A14201D1C7F8008099
:1066500071054FF002040BD54042002803DD01F024
:1066600017F80460A007BDE8F08746F48066E4E709
:106670000028F8DA01F00CF804606FF00040F2E74F
:1066800070B5064601F004F8046805460A220021A8
:106690003046FFF7BDFF2C6070BD2DE9F05F054669
:1066A000002092469B4688460646814640241BE0D1
:1066B000284641464746224600F082F853465A464D
:1066C000C01A914110D3114618462246FFF7F4FE36
:1066D0002D1A67EB01084F46224601200021FFF7E3
:1066E000EBFE17EB00094E41201EA4F10104DFDC94
:1066F000484631462A464346BDE8F09F2DE9F05F03
:1067000082460078002715468B460AF10104B946F7
:10671000302801D09DB113E014F8010B012778282F
:1067200003D0582801D045B10AE00DB1102D07D192
:106730000027102514F8010B02E0082500E00A25C7
:106740000026B0460EE005FB080005FB06F1012718
:1067500001EB10461FFA80F8B6F5803F00D3B9462A
:1067600014F8010B294600F03BF80028EBDABBF1E6
:10677000000F05D00FB1641E00E05446CBF8004076
:10678000B9F1000F06D000F083FF02210160C81E9E
:10679000BDE8F09F48EA0640FAE70000064C074DC6
:1067A00006E0E06840F0010394E8070098471034E1
:1067B000AC42F6D3FFF728FD48710300687103006F
:1067C000202A04DB203A21FA02F00021704721FA46
:1067D00002F3D040C2F120029140084319467047AD
:1067E0003A2800D2303820F02002412A01D3A2F109
:1067F0003700884201D34FF0FF30704770B58C18D6
:1068000010F8015B15F0070301D110F8013B2A11C4
:1068100006D110F8012B03E010F8016B01F8016BB1
:106820005B1EF9D12B0705D40023521E0DD401F8AD
:10683000013BFAE710F8013BCB1A921C03E013F876
:10684000015B01F8015B521EF9D5A142D8D30020AB
:1068500070BD0000F3B5214E074681B04FF0FF3107
:1068600070690FF0E7FABDF80800152803D27388A5
:1068700002AA394626E0002514240DE005EB850028
:1068800007EB80011548ADF8004073886A461C305C
:1068900003F096F96D1CEDB2BDF80800B0FBF4F002
:1068A000A842EBD8BDF808006A46B0FBF4F104FB3F
:1068B0001101B0FBF4F0ADF8001000EB800073881C
:1068C00007EB800105481C3003F07AF900231A46D3
:1068D000194670690FF07CF9FEBD0000882B00207E
:1068E000F3B5244E074681B04FF0FF3170690FF0C9
:1068F000A1FABDF80810384600F089F8ADF8080094
:10690000152803D2738802AA394627E000251424EB
:106910000EE000BF05EB850007EB80011548ADF8E0
:10692000004073886A461C3003F04AF96D1CEDB2D2
:10693000BDF80800B0FBF4F0A842EBD8BDF80800A1
:106940006A46B0FBF4F104FB1101B0FBF4F0ADF8C2
:10695000001000EB8000738807EB800105481C30B5
:1069600003F02EF900231A46194670690FF030F92A
:10697000FEBD0000882B0020F0B50346ADF5806D0C
:10698000002203207E267D276C464D1E2CE000BF92
:1069900013F800C0BCF17D0F04D0A0EB020E04F888
:1069A0000EC01FE003EB000C9CF801C0BCF15E0FB1
:1069B00002D0BCF15D0F0CD1401C80B2521C13F808
:1069C00000C092B2BCF15D0F03D0BCF15E0F05D0E8
:1069D00008E0A0EB020C04F80C7003E0A0EB020C42
:1069E00004F80C60401C80B2A842D1DB881A80B247
:1069F0000321421E03E0655C5D54491C89B291424B
:106A0000F9DB191801F8016C0DF5806DF0BDF0B5DA
:106A10000446ADF5806D002303207D266A464F1E97
:106A20000AE0255C7D2D0ED07E2D11D000EB030CED
:106A300002F80C50401C80B2B842F2DBC81880B299
:106A40000321431E12E0C5184FF05D0C565503E0BC
:106A5000C5184FF05E0C565515445B1C85F801C0F7
:106A60009BB2E7E7555C6554491C89B29942F9DB52
:106A70007E21221802F8011C0DF5806DF0BD00008A
:106A80002DE9F04700268AB0DFF85091B0464FF468
:106A90008075012437460696284609F08FF938B1EB
:106AA000D9F80403204203D0284609F07DF9264393
:106AB0002D1D64007F1CADB2082FEDD34FF4BE74C2
:106AC000204609F07BF948B1204609F06DF946F0FF
:106AD000004606AA0121002009F052F9404D16F0A7
:106AE000FF0F15D00127002437420DD009EB840198
:106AF000D1F81005D1F81015C0F3042055F8242062
:106B0000C1F3014102B190477F00641C082CEBD314
:106B1000002E5FDA4FF0FF30CDF8108054E02819D6
:106B200010F8507F90F9000027F0C008401C3BD0BF
:106B300007A9404608F043FA10B34FEA97194046B8
:106B400003F046FD55F820701FB1B9F1030F03D0D3
:106B500006E0B9F1030F27D104A9404608F037FA3F
:106B60004FF0A04101EB8800D0F8000706A9C0F360
:106B7000014A404608F023FA18B1BAF1020F03D0D7
:106B800012E0BAF1030F0FD1B9F1030F08D1BAF136
:106B9000020F1DD00221404609F0CAF8761CF6B259
:106BA00017B149464046B847641C042CB7D3002EA1
:106BB00010D06A460121002009F0E2F806990098F9
:106BC000884207D006900498002634460790A6E72E
:106BD0000321E0E70AB0BDE8F08700000060004054
:106BE000A48D0020F0B502460020091F8BB24FF69D
:106BF000FF7541F221060BE014788021070405EAB5
:106C0000400000D570400C4200D070404908F5D1DA
:106C1000521C5B1E9BB2EFD2F0BD0000044609F08F
:106C2000B1FB00BF09F094F90028FBD1204600F029
:106C300001F80000BFF34F8F05480168054A01F4D1
:106C4000E06111430160BFF34F8F00BFFDE700001B
:106C50000CED00E00400FA0530B500230CE000BFA5
:106C600001EB430411F81350647804EB0514A4F508
:106C70004C74C4545B1C9BB29342F1D330BD0000F2
:106C8000F0B54B4DB1B00B46012804D0022848D0D6
:106C9000032846D16DE00A2A43D318681B909888D0
:106CA000ADF8700033208DF86D0030208DF8720043
:106CB0008DF873000A3A02EBD270C0F34F0203F171
:106CC0000A011EA8FFF7C8FF3AA11EA8FFF738FC6B
:106CD000002869D014212BA8FFF71BFC9DF87C002D
:106CE000D022303800EB80009DF87D1002EB400090
:106CF0000844C4B20627601E2BAE1E283A4611D3A4
:106D00002DA1304600F058FACDE900761BAB2CA23D
:106D1000642102A800F0A4FC286802A9C26B2448E0
:106D2000904741E02DA1304600F046FACDE90076CB
:106D30001BAB23A2642102A800F092FC286802A9E0
:106D4000C26B1B489047274804234443264847F218
:106D5000071100F1140244614FF2100007F01AFD10
:106D60004FF4FA600EF0FAF9192003F033FA00F04C
:106D7000AFF81EA11846FFF7E3FBA8B1142102A843
:106D8000FFF7C7FB1AA2142102A800F069FC02A8B1
:106D9000FFF7FEFB82B201200090019028680023DB
:106DA00002A9C46C0248A04731B00020F0BD000029
:106DB000002C0020403042004030422B315E000069
:106DC00041542B4D324D434C4953454E443D25389B
:106DD0002E38732530345825730000004030422B84
:106DE000305E000080EE3600C02F002030410000F1
:106DF0004030412B305E000001F0CEB910B58AB0B2
:106E0000044618220D496846FFF76AFB0C480690B5
:106E10004FF4007007900B4808904FF48070099071
:106E20000323094A06A9684601F0E4F908B101F014
:106E300075F8064844600AB010BD00007C64030089
:106E4000F0300020F0320020C1480300F02B002079
:106E50000DF028BD074910B58860074A0021074892
:106E600001F0E6F8002803D0BDE8104001F056B864
:106E700010BD0000F02B0020D1EC02007464030070
:106E800000EB4001C1EBC0104FF4FA7101EBC00000
:106E90004900B0FBF1F1064810B50022006801F08E
:106EA000F3F8002803D0BDE8104001F037B810BD5A
:106EB00074640300054810B5006801F03BF9002830
:106EC00003D0BDE8104001F029B810BD7464030080
:106ED000BFF34F8F05480168054A01F4E061114393
:106EE0000160BFF34F8F00BFFDE700000CED00E035
:106EF0000400FA05BFF34F8F05480168054A01F405
:106F0000E06111430160BFF34F8F00BFFDE7000058
:106F10000CED00E00400FA0570B54FF480763046C1
:106F200008F098F9114CB50560B1304608F099F9B0
:106F30000120C5F80803607920B90120607121683B
:106F4000002088474FF48276304608F083F9002805
:106F50000AD0304608F085F90220C5F808032168F8
:106F6000BDE870400120084770BD0000102D0020D2
:106F70002DE9F041164E4FF4A071304609F01AFB8E
:106F80000025EFF31184402080F31188D6F80475B2
:106F90008100304609F00EFB0FF044F8381A20F05B
:106FA0007F46012E07D90FF02FF8022803D00026C4
:106FB0000FF044F80543761EFAD225B105494FF08B
:106FC0008050086040BFE0B280F31188BDE8F081D6
:106FD0000010014004ED00E02DE9FE434FF48278FB
:106FE000404609F0FFFA4C4F00254C4C012600B3F7
:106FF000404609F0FFFA94F82E0010B194F82F10D3
:10700000D1B18DF80050616801912189ADF8081067
:10701000E26832B1218B618362602181E56010B149
:1070200002E0257400E03E6021686846884784F8E5
:107030002F5094F82E0060B34FF48077384609F053
:10704000D1FA30B3384609F0D5FA628B94F82D1096
:107050008A420AD9A2EB010080B260832289A2EBA6
:107060000000626802EB400005E007D1E06828B14B
:1070700084F82F60658309F0A3FA04E08A4202D104
:1070800084F82F606583404609F0B4FA2248001D59
:1070900006604FF48877384609F0A4FA48B13846BC
:1070A00009F0A8FA257402208DF8000021686846CE
:1070B00088474FF48A77384609F094FA28B1384661
:1070C00009F098FA2574BDE8FE834FF000484FF4AC
:1070D0008C7967691DE000BFB7FA87F028FA00F1E4
:1070E00009EB80058F43284609F07CFA88B12846D1
:1070F00009F080FAA5F58C75E8088DF8040045F3D1
:107100008000401C8DF800608DF8050021686846FD
:107110008847002FE0D1D6E700700040008E0020A5
:1071200000F010BA70B50E46144900EB400001EBB8
:10713000C0051446E86A183520B101280FD002288E
:1071400005D113E0284600F031FAA04201D2002414
:1071500011E022463146284600F060FA0BE028464E
:1071600000F024FAA042F4D20446F2E73146284661
:1071700000F027FA0446204670BD00005C95002010
:10718000014902480DF090B9308E002000300040D7
:10719000074810B500680FF0B3F8012807D105497A
:1071A0000007086040BFBFF34F8FBFF36F8F10BD64
:1071B000402E002004ED00E02DE9F04116460F4678
:1071C0000546002408E03B5D05A20321284600F0A7
:1071D00047FA641CA4B2AD1CB442F4D3BDE8F081FC
:1071E0002530325800000000F0B5B5480023021DDC
:1071F0000178101D01254FF0805406290BD1167817
:10720000360708D10678C6F30316032E06D0042EDF
:1072100004D0052E02D0062907D00EE0B4F824636E
:10722000A84FC6F304263E6002E01678360704D164
:107230000678C6F30316032E02D0062904D00FE009
:10724000A24FA14E7E670EE01678360708D1067869
:10725000C6F30316032E06D0042E04D0052E02D04A
:10726000062907D00EE0D4F84462994FC6F342369F
:107270003E6002E01678360704D10678C6F303169E
:10728000032E02D0062906D011E0924E376827F06F
:10729000807737600EE01678360708D10678C6F397
:1072A0000316032E06D0042E04D0052E02D0062984
:1072B0000AD011E04FF08046C6F80C31C6F8103104
:1072C000834E361F336002E01678360704D1067805
:1072D000C6F30316032E02D0062905D00CE07C4F1E
:1072E000032664373E600AE01678360704D1067834
:1072F000C6F30316032E02D006290DD014E0764FF4
:1073000005263E60744E78363560734E083633601D
:107310003F263F1D3E6002E01678360704D106780E
:10732000C6F30316052E02D0062957D062E06B4E35
:1073300036686B4F3E60694E361D36683F1D3E60B5
:10734000664E083636683F1D3E60644E0C36366821
:107350003F1D3E60614E103636683F1D3E605F4EF9
:10736000143636683F1D3E605C4E183636685C4FFA
:1073700020373E60594E1C3636683F1D3E60574EE2
:10738000203636683F1D3E60544E243636683F1D19
:107390003E60524E283636683F1D3E604F4E2C36BA
:1073A00036683F1D3E604D4E303636684C4F403794
:1073B0003E604A4E343636683F1D3E60474E383692
:1073C00036683F1D3E60454E3C3636683F1D3E6088
:1073D000424E403636683F1D3E6002E01678360762
:1073E00008D10678C6F30316032E06D0042E04D067
:1073F000052E02D0062907D019E0D4F85812394AD0
:1074000001F04F01116002E0117809070FD10078F7
:10741000C0F30310032803D0042801D0052806D1A7
:1074200031480168C90702D06FF001010160D4F84A
:107430003001062808D1D4F83401062804D12B489D
:10744000016841F48061016022487438016841F4A8
:1074500070010160BFF34F8FBFF36F8F4FF01021AA
:10746000D1F80002002803DBD1F80402002822DA58
:107470001F4A15601F480468002CFCD01524C1F871
:1074800000420568002DFCD0C1F8044201680029C3
:10749000FCD0136001680029FCD0BFF34F8F0D486A
:1074A000F0380168144A01F4E06111430160BFF350
:1074B0004F8F00BFFDE7124910480860F0BD000083
:1074C000E00F00F0403501400DF0ADBA00C00740BC
:1074D0003C050040FCED00E01056004004040010A4
:1074E00020C50040E40E0040000400403C1700406E
:1074F00004E5014000E401400400FA050090D003D7
:10750000482E00200148006800470000242D00207C
:10751000094882B0D0F804034FF0000110F0010FC9
:1075200007D006480160006800900548406802B036
:10753000004702B070470000000001400001014018
:107540002C2D002010B5124C02202061606111A08A
:10755000A06104F17800E0614FF400702062002027
:10756000A06260620BA1A164E06204F51E71E16497
:107570001021A065C4E91410E06509A1E01DFFF722
:107580001BF808A12046FFF717F82020A07110BDB6
:107590005C9500205465726D696E616C000000009E
:1075A0005254540053454747455200000269C16890
:1075B0008A4203D88068401A104400E0501A401EE6
:1075C00070472DE9F047C4681746894606464FF0D4
:1075D00000083069A04201D9051B02E0B168201AF9
:1075E0000D1AB0686D1E001BA84200D80546BD42AA
:1075F00000D33D4670682A4620444946FEF770FF96
:10760000B0687F1B2C44A844A944A04200D10024A8
:10761000F460002FDDD14046BDE8F0872DE9F04150
:1076200004468846D4E90207C51BE168606816462F
:107630000844B54206D94146FEF752FFB819E0604A
:10764000BDE8F0812A464146FEF74AFF761B08EB6B
:10765000050132466068FEF743FFE660F0E7000090
:107660000FB41CB50246002007AC00290BD0491E00
:10767000CDE90021054B6A462146069800F03AF80C
:10768000009A002111701CBC5DF814FB577B0200AE
:1076900000487047582E002002E008C8121F08C199
:1076A000002AFAD170477047002001E001C1121F83
:1076B000002AFBD1704700000121202803DA814015
:1076C0000548014003E0402802DA2038814009B132
:1076D0000120704700207047FC06FFBD082806D235
:1076E00028B1012803D0042801D0012070470020D0
:1076F000704700002DE9FF4F8DB00F46054600266C
:1077000006E025280BD0DDE90F1290476D1C761C92
:1077100028780028F5D111B03046BDE8F08F00245C
:10772000A246A1460122EC4900E0044315F8013FBE
:10773000203B02FA03F00842F7D128782A2810D01B
:107740006FF02F022878A0F13001092914D80AEB34
:107750008A0102EB410144F0020400EB010A6D1CB6
:10776000F0E701CF5FEA000A03D544F40054CAF100
:10777000000A44F002046D1C28782E2817D115F851
:10778000010F44F004042A280ED06FF02F0228784D
:10779000A0F1300109290AD809EB890102EB410166
:1077A00000EB01096D1CF2E757F8049B6D1C28786B
:1077B0006C280FD006DC4C2817D068280DD06A281A
:1077C00014D104E0742810D07A280FD10DE044F4CD
:1077D00000140AE044F4801401E044F44014697891
:1077E000814202D104F580146D1C6D1C2A786E2A2A
:1077F0001FD00CDC632A31D004DC002A8BD0582A3D
:1078000011D1A3E0642A68D0692A0CD165E0732AFB
:107810002ED004DC6F2A73D0702A04D19BE0752A25
:107820006FD0782A6ED01046DDE90F129047761C93
:1078300050E1C4F30250022806D0032809D00428DE
:1078400001CF09D0066045E101CFF117C0E9006121
:1078500040E101CF06803DE106703BE117F8040BE3
:107860008DF8000000208DF80100EB46012003E0B8
:1078700057F804BB4FF0FF3061074FF0000102D40E
:107880000DE008F10101884649450FDA8045F8DB33
:107890001BF808100029F4D108E008F1010188461E
:1078A0008142FADB1BF808100029F6D1DDE90F232D
:1078B000AAEB08008146214600F036F9304400EB7F
:1078C000080604E0DDE90F121BF8010B9047B8F140
:1078D0000108F7D221464846F7E00A21C4F30253D3
:1078E0004FF0000B0891022B04D001CFC117032BDE
:1078F00009D00AE0FF1D27F00707F7E8020108E0BA
:1079000032E01FE020E000B2C117042B01D140B2E9
:10791000C117031E71F1000307DA4FF0000CD0EB22
:107920000C006CEB01012D2302E0230504D52B2371
:107930008DF82430012303E0E30701D02023F7E78B
:10794000984658E00A2110E010210EE010204FF078
:10795000000B08900CE010214FF0000B44F00404E1
:107960004FF00809089103E008214FF0000B08913F
:10797000C4F30253022B04D001CF0021032B06D005
:1079800006E0FF1D27F00707F7E8020103E080B2D9
:10799000042B00D1C0B24FF0000823072BD5702A6A
:1079A00007D0DDF820C08CF0100C5CEA0B0C05D081
:1079B0000EE040238DF82430012308E050EA010353
:1079C00006D030238DF824308DF8252002239846E8
:1079D000DDF820C08CF0080C5CEA0B0C0BD150EAEF
:1079E000010301D1630706D530238DF824304FF011
:1079F0000108A9F10109582A04D038A20B9208AA5B
:107A00000A920BE03AA2F9E75B46089AFEF745FEB8
:107A10000B9B9B5C0A9A521E0A92137050EA010259
:107A2000F2D10A98ADEB000000F1200B600702D5FF
:107A300024F4803401E04FF00109D94502DDA9EBBF
:107A40000B0000E0002000EB0B0141440890AAEB82
:107A5000010AE00306D4DDE90F232146504600F079
:107A600063F806444FF0000908E009A911F809007D
:107A7000DDE90F12904709F10109761CC145F4DBDD
:107A8000E0030CD5DDE90F232146504600F04CF809
:107A9000064404E0DDE90F1230209047761C089977
:107AA000481E08900029F5DC08E00A980A99007839
:107AB000491C0A91DDE90F129047761CBBF10001C9
:107AC000ABF1010BF1DC21465046DDE90F2300F05C
:107AD00019F806446D1C1BE60928010030313233C9
:107AE00034353637383961626364656600000000FA
:107AF00030313233343536373839414243444546E4
:107B0000000000002DE9F041044600251E461746FE
:107B1000880404D405E039462020B0476D1C641E5B
:107B2000F9D52846BDE8F0812DE9F041044600254D
:107B30001E469046C80301D5302700E02027880460
:107B400004D505E041463846B0476D1C641EF9D5A2
:107B50002846BDE8F0814A68002A06D00A68531C0E
:107B60000B6010704868401E4860704710B560B1E7
:107B700059B102780B785208B2EB530F05D10622A7
:107B8000401C491CFEF70BFD08B1002010BD012070
:107B900010BD800701D00020704701207047C368E6
:107BA0008B4206D811440069491E814201D8012048
:107BB000704700207047000070B5ACB0AC2168463B
:107BC000FEF7A7FC012402208DF800008DF802408A
:107BD00006208DF803001C480590ADF810403020B9
:107BE00022904FF4FA608DF87C4023908DF87D4010
:107BF0004FF4A07024908005D0F81005134E0009B2
:107C000010F0010F4FF0000505D0002003F008FE32
:107C10003471259506E0012003F002FE35714FF422
:107C20007A6025900A48299008486946D43800F0BF
:107C300075FE08B100F072F904480121D43800F053
:107C40006AFE2CB070BD00008E2B0020DC2F0020BF
:107C50006D17030010B5007850B11148032100885A
:107C600001EB00400FA108F0D7FA0AF06DFE0FE01B
:107C700010A11248FEF764FC28B911A10F48FEF7C5
:107C80005FFC00280AD00D480321B83800F010FF2F
:107C9000002803D0BDE8104000F040B910BD00003E
:107CA000B42E0020457261736520626F6E6473218B
:107CB0000000000048545F7461670000C02F00207E
:107CC00068745F544147000070B58CB015460E468D
:107CD00000236C46C3F10F01415CE1545B1C102B87
:107CE000F8D30D2104F11000FEF713FC0020C0F1C1
:107CF0000F02315C2244401C11740328F7D36846FC
:107D000046DF0020C0F10F01214491F820102954D2
:107D1000401C0328F6D30CB070BD002002F016B84A
:107D20000149097901F026BBEC2C0020F8B5018847
:107D30000026044621293FD027DC28484FF00302C3
:107D4000274F0088274D02EB0040102925D011292C
:107D50003AD125A108F060FA032003F061FD7E719D
:107D60002878012830D1A7F11C002E70006905F198
:107D70003001012801D0002826D1CA6801B0184876
:107D8000BDE8F0400C211C3810473B291DD0562976
:107D90001AD18088132176DF1AE017A108F03CFA87
:107DA000022003F03DFD012078710D48A188698013
:107DB000E03807F0D7F90BE00096808869468FDF3E
:107DC000002801D000F0AAF8F8BD8088132176DFE2
:107DD0000028F9D0BDE8F84000F0A0B8B42E00208B
:107DE000DC2F0020882B0020446973636F6E6E6562
:107DF000637465642E000000436F6E6E6563746586
:107E0000642E000070B50024064D06E0686801216C
:107E100010F8340008F056FE641C28788442F5D32C
:107E2000002070BD382D0020F8B515460C460646DA
:107E3000052A01D20720F8BD08F040FF18B908F064
:107E400005FF0028F7D1124900224E600C708D60AA
:107E5000C1E90422C1E906220E4D0DE006EBC40083
:107E60002968009181788DF8011000780A4A6946E6
:107E700008F07AFE0028DED1641EE4B2EED2BDE83E
:107E8000F84004480021054A001D00F0D1B8000068
:107E9000382D0020B866030085B9020071A90200E0
:107EA00072B608F06FFA00BF08F052F80028FBD154
:107EB000104C0121208801EB00400FA108F0ACF923
:107EC00010480068C00700D000BE2088022101EBE6
:107ED00000400DA108F0A0F9BFF34F8F0948E43826
:107EE00001680D4A01F4E06111430160BFF34F8F57
:107EF00000BFFDE7B42E0020466174616C206572FE
:107F0000726F7200F0ED00E053797374656D20724A
:107F100065736574000000000400FA050EB50021C9
:107F20000091CDE901106A4644F20100FFF7B8FF65
:107F30000EBD10B58268C368934203D003F0DCF82D
:107F4000002010BD052010BD29B112B1531E1342EF
:107F500003D0092070470E20704701608380002104
:107F60008160C1600846704710B58268C3689A1A7C
:107F700083889A4203D803F0C9F8002010BD04207A
:107F800010BD000070B502280FD1094C032509A1CE
:107F9000208805EB004008F03FF906F033FC20880C
:107FA00010A105EB004008F037F9012070BD00007A
:107FB000B42E0020506F776572206D616E61676529
:107FC0006D656E742077616E747320746F207265B6
:107FD00073657420746F20444655206D6F64652E60
:107FE00000000000506F776572206D616E616765FB
:107FF0006D656E7420616C6C6F77656420746F20A2
:10800000726573657420746F20444655206D6F64EB
:10801000652E000010B50BF0FBF8017B002905D0A0
:1080200001688268BDE810400846104710BD000096
:1080300038B5046800251AB110B1207B20B901E0E1
:10804000072038BD606808B1082038BD00202060D6
:10805000A060E06069B10120A26008490246009179
:1080600023464FF47A7106A00EF07EF9606010B1DD
:1080700002E00020F0E70E25284638BD15800200FA
:1080800020000000002070472DE9FC41466815469D
:108090000F46044656B1207B002809D030460EF02A
:1080A000C5F9002804D00020BDE8FC810820FBE7CA
:1080B000EFF30580256008B30025019501AB3A4632
:1080C0000921304600950EF089F901282BD10DF0D9
:1080D000AFFF024601AB0621304600950EF07EF957
:1080E000012820D1019800B311494FF08050086059
:1080F00040BFBFF34F8FBFF36F8F16E00225002301
:108100003A460421304600950EF068F901280AD15C
:108110000DF088FF024600230121304600950EF045
:108120005DF9012801D00420BEE701202073BAE7E1
:1081300004ED00E07CB504464068002500280CD022
:10814000EFF30581B9B1019501AB0022082100953B
:108150000EF044F9012817D101E008207CBD0198F8
:10816000A0B10C494FF08050086040BFBFF34F8F63
:10817000BFF36F8F0AE00221002300911A4603210A
:108180000EF02CF9012801D004207CBD25730020BD
:108190007CBD000004ED00E0074810B50178074AF7
:1081A000515C19B1001D09F019FA02E00C3009F018
:1081B000A5F8002010BD0000C82D0020182D0020BB
:1081C00070B50A4E01460A48B578FFF7B2FE04467C
:1081D0004DB10020B070711C0122C81D07F08EF94E
:1081E00008B1FFF79BFE204670BD0000C02D0020A7
:1081F00018900020F0B5244E89B01F460D000446AB
:1082000072603FD0A888296882B22048FFF79CFEA0
:10821000002835D1A889A96882B21C481030FFF720
:1082200093FE00282CD1202219496846FEF758F900
:1082300060690690207C00B101208DF814008DF853
:108240001C70607C00B10E208DF81500E068029073
:10825000A068039020680190606800900A480D4A69
:108260006946083007F016F9002809D1B070206877
:10827000401C05D004490122491CC81D07F03EF9E5
:1082800009B0F0BD0720FBE7C02D002018900020AA
:10829000D86803003549030010B501461048FFF7C0
:1082A00063FE040019D10F480F4A0178515C19B1DF
:1082B000001D09F085F902E00C3009F00FF860B9F3
:1082C000084907480839FFF734FE30B9054901224B
:1082D0000839044807F022F90446204610BD000082
:1082E00028900020C82D0020182D002030B5EFF375
:1082F000108172B60D4A9468012324B103700029DD
:1083000000D162B630BD93604FF0E023D3F88051C6
:10831000074C25401560C3F88041D3F88441546070
:108320005A17C3F8842100220270E8E7808E0020EB
:10833000FC06FFBD0B498A68002A11D000280FD126
:10834000EFF3108072B60B684FF0E022C2F80031F4
:108350004B68C2F8043100228A60002800D162B65E
:1083600070470000808E00202DE9F0410646086825
:108370000C46411C4FF0A0474FF0010506D005FA0E
:1083800000F1C7F80815206807F0BEFC6068411CC2
:1083900002D0002107F09EFC3168A069C1F82405D5
:1083A000607D227D31681043C1F86C05D4E900126C
:1083B0003068C0F81425C0F80C15207D012815D1AF
:1083C000A068411C02D0002107F084FCE068411C39
:1083D00005D08540C7F80855E06807F095FCD4E95A
:1083E00002123068C0F80825C0F81015BDE8F08109
:1083F0002DE9F041064608680C46411C4FF0A047A5
:108400004FF0010506D005FA00F1C7F808152068FD
:1084100007F084FC6068411C02D0002107F063FC77
:108420003168A069C1F82405607D217D3268084368
:10843000C2F86C05D4E900123068C0F80C15C0F819
:108440001425207D012815D1A068411C02D00021EF
:1084500007F049FCE068411C05D08540C7F8085585
:10846000E06807F05BFCD4E902123068C0F8082528
:10847000C0F81015BDE8F08103F0B2BF2DE9F04758
:10848000074600888EB0804603F002FD824604460F
:108490002D4800252A460178404600F083FF787970
:1084A000400734D501254FF6FF7603AB2A46072156
:1084B000504609F0ABFC010004D040460BF042FBF3
:1084C00000252BE0B1463146049803F035FC064602
:1084D00048450FD004460146404603F0C3FC4046E1
:1084E000FFF71EFC30B940460BF0FEFA4046FFF79E
:1084F00017FC48B122460721504609F0FDFC010057
:1085000003D040460BF01EFB00254E4506D04046EA
:1085100009F060FE10B1504603F0A6FC02208DF871
:108520001800ADF81A807879400701D5012000E0E5
:1085300002208DF820008DF8215006A802F084FB5F
:108540000EB0BDE8F0870000EC2C002070B50025CF
:1085500086B001221B202C4600952B461146019522
:1085600007F05EFB4FF0A0414FF00060C1F80C0532
:108570005E495F4808F05AFC08B1FFF7CFFC5C4A3F
:1085800003AB103207CA83E8070003A9002008F0F4
:10859000CDFB08B1FFF7C2FC002602A9002008F0BD
:1085A000CDFCBDF90800761CF6B20544322EF4D39A
:1085B0003220B5FBF0F0ADF8080008F01FFD0023F5
:1085C0001B20009401221946019407F029FBBDF8F5
:1085D00008004FF4E15110FB01F0C11700EB91507E
:1085E000C0F38F2041F26801884202D3642006B0B4
:1085F00070BDB0F57F6F06D30C21A0F57F6090FBB6
:10860000F1F05A300AE0B0F57A6F09D3A0F57A603C
:10861000C11700EB5170502101EBE000C0B2E6E75A
:1086200040F65A71884206D30721A0F65A7090FB93
:10863000F1F04630F2E740F61E71884206D306217B
:10864000A0F61E7090FBF1F03C30E7E740F6EC61DD
:10865000884206D30521A0F6EC6090FBF1F03230A1
:10866000DCE740F6CE620321904205D3A0F6CE604F
:1086700090FBF1F02830D1E740F6BA62904205D382
:10868000A0F6BA6000EBD0701E211EE040F69262A8
:10869000904208D3A0F69260C11700EB91701421AC
:1086A00001EBA000BAE740F67462904205D3A0F651
:1086B000746090FBF1F00F30B0E7B0F5666F07D350
:1086C000A0F5666000EBD0700A2101EB6000A5E721
:1086D00040F6AC51884206D31221A0F6AC5090FB74
:1086E000F1F0401D9AE7002081E70000A937030060
:1086F0004C65030070B51500044609D000202860C1
:1087000034B1206820B1A079800703D0072070BD64
:108710000E2070BD084600F0CDFDC0B2142804D074
:108720002179814203D8042070BD052070BDE28804
:10873000216800FB02102860002070BD2DE9FC4775
:10874000002517880646158090F82D0014468946A6
:1087500030B13A462146484600F04EFE051E09D18A
:10876000B0784FF00C0A18B32088C846001DB842F4
:1087700002D95046BDE8FC87684679DF0028F9D168
:108780002088032108F8001020881921401C80B29D
:10879000208008F800102088401C80B2208000EB68
:1087A0000801BDF800000CF053FA2188084420802D
:1087B000F0780222C8B1218896F9033001F1030C48
:1087C0004846BC45D5D8425421884FF0010C491C7D
:1087D00089B2218000F801C02188491C89B221801A
:1087E00009F801302088401C20807068B8B12188C9
:1087F00090F9003001F1030C4846BC45B9D8425409
:1088000021880A22491C89B2218042542188491CAE
:1088100089B2218009F801302088401C20803089ED
:1088200050B1CDE900474B460622022106F108006F
:108830000CF0ECFA051E9DD1308A50B1CDE900470D
:108840004B460722032106F110000CF0DFFA051E4B
:1088500090D1308B50B1CDE900474B461522142101
:1088600006F118000CF0D2FA051E83D1306A30B13F
:108870003B462246494601F010FF051EDBD1706AD7
:1088800030B13B462246494604F02EF8051ED2D1AF
:1088900096F82C0038B13B462246494630460BF04C
:1088A000FFF9051EC7D1307838B13B46224649460C
:1088B000304605F0C7FF051EBDD128465AE718B55A
:1088C00004460020ADF8000013466A46204600F03A
:1088D00006F8002802D0BDF80000204418BD70B58D
:1088E00088B182B10024158803E0065D641C34441D
:1088F000A4B2A54203D8061976789E4201D08C42D4
:10890000F3D38C4201D3002070BDA11C1180005D07
:10891000401E80B270BD80F8301070472DE9F041E4
:108920000D00044606D02CB195F87A0000260128E7
:1089300003D006E00E20BDE8F08195F898000128EC
:1089400029D0D5F8A000042825D0D5F89C0004280B
:1089500021D04FF00108A6702C2205F17801201DCE
:10896000FDF7BEFD84F83060D5F8A4006063D5F84B
:10897000A800A0634FF6FF70A4F8A80004F19400CB
:10898000C4F8A400C4F8AA60A4F8AE6084F8B0608B
:10899000207810B104E00720CDE7FF2084F85400D0
:1089A00004F155011F27C4F89410A4F8987004F13D
:1089B00098022846FFF7C2FE0028BCD115F13C0FF3
:1089C0000ED004F17401C4F89C10A4F8A07004F156
:1089D000A00205F13C00FFF7B1FE0028ABD103E097
:1089E000C4F89C60A4F8A06084F85180208BA4F89F
:1089F000480084F83C80266484F8506060696064B4
:108A0000454604F13C02002104F1540072DF0028C5
:108A100091D125708FE710B50288102A1BD0112A3A
:108A200020D0262A1DD1007A0C46012801D0022828
:108A300017D1A0780521401CB0FBF1F201FB120117
:108A4000204600F035F800280BD0A16B002908D093
:108A5000BDE810400847C27B012A02D18088A1F8F6
:108A6000A80010BD0C46002184F8B2108088B4F82C
:108A7000A8108842F5D120790028F2D10121DFE742
:108A800010B50C46022801D0032810D160780028C8
:108A90000DD000206070A178204600F009F8002871
:108AA00005D0A16B002902D0BDE81040084710BDD9
:108AB0002DE9F05F044600780F4638B1A77000201A
:108AC00006F01CFF012620B1667007E10820BDE812
:108AD000F09F0025C4F8AA50A4F8AE5084F8B05016
:108AE000A07910B1A078012806D0E07968B1A0780B
:108AF000012801D0022808D1616B21B184F8B1604E
:108B00000820884701E084F8B15004F1AB0100204F
:108B10000A5C0AB1304603E0401C0628F8D3002066
:108B20004FF002084FF0030B012F06D0022F0CD09C
:108B3000032F0FD0042F15D110E0A17929B194F89B
:108B4000241011B908B130460DE0E17911B108B136
:108B5000404608E0207A08B1584604E0607A08B13F
:108B6000042000E02846A070616B41B1032801D0C9
:108B7000042804D1607910B194F8B200A0B184F84F
:108B8000B35004F13C0018210746FDF7C2FC04F184
:108B90002C0084F83C60814609F048FC58B194F8F8
:108BA0002C0084F8510008E084F8B45084F8B360D5
:108BB00007208847E5E784F8516094F8240050B115
:108BC000484609F033FC20B194F8280084F852009C
:108BD00001E084F8526084F85050A27804F1AA01B0
:108BE00004F194094FF0060A052A60D2DFE802F08A
:108BF00078030F223F0084F83160C4F8A450C4E920
:108C0000101584F83C808020A4F8480051E084F8D6
:108C1000318094F82420384612B10722027001E016
:108C200080F800B0228A8281C4F8A4504160E168D3
:108C3000B9603EE06069B860208BB88194F8240088
:108C40003D4610B184F83CA001E084F83C60204629
:108C50000CF0B8F840B185F814800421204602F0E9
:108C60007AFA20BB05211EE084F831B01DE0E069EE
:108C7000B860208CB88194F824003D4610B184F887
:108C80003CA001E084F83C6020460CF09BF848B121
:108C900085F814800421204602F05DFA38B984F882
:108CA00031A002E0042184F83110C4F8A490A07827
:108CB00078B13A4604F15400D4F8A41072DF0028C9
:108CC0007FF405AF94F8301094F8540073DF002857
:108CD000F6D1616B11B194F8310088470020F6E6B7
:108CE00084F83150F5E700002DE9F04F97B08B463E
:108CF00007463C216846FDF70CFC38680090786810
:108D00000190387A8DF8080000248DF80940F94E5A
:108D1000B7F8073006F1100047F2081110905A1A00
:108D20007E2530694FF001084FF0FF098B426ED06D
:108D300010DC6FF4E24103EB0102DFF8BCA3072A69
:108D40000AF125010F917DD2DFE802F07C24578DD6
:108D5000A6F9F40040F6F90CA2F6F903624572D0C8
:108D600011DC012A70D0092AFCD0192A6AD18DF8A9
:108D70000A40E249E248BA7A09690079FF2A6FD0CD
:108D8000002A6ED0A1E1012B5CD0022B6AD0032B0C
:108D900058D1B9E010218DF80A10012818D08DF8AB
:108DA0002B4000BF9AF83A00012815D010210DF190
:108DB0001B00FDF7AEFB2F216846FDF713FF8DF872
:108DC0002C00000A8DF82D008DF82E502F2188E1FF
:108DD0006C208DF82B00E5E70F248DF80B40224620
:108DE00003A80F99FDF77CFBC3498DF81B400F22A8
:108DF000153107A8FDF774FBDDE7FFF7A7FB8DF83A
:108E00000A003069012803D08DF80B900EE0A8E02D
:108E10009AF83D0001281CD08DF80B904FF0A0402F
:108E2000D0F81005800E10F0010F15D08DF80C4011
:108E300010216846FDF7D6FE8DF80D00000A8DF86A
:108E40000E0002E050E1B1E085E08DF80F501021F6
:108E500047E18DF80B40E1E703208DF80C00E7E7D0
:108E600097E09BE043E10F22A6A10DF10A00FDF778
:108E700037FB0F22A7A10DF11A00FDF731FB2D21C1
:108E80006846FDF7AFFE8DF82A00000A8DF82B002A
:108E90008DF82C502D2124E1BBF11E0F03D200BF11
:108EA0008DF80A8011E107F10A039EA2122111A890
:108EB000FEF7D6FB11A80F99FDF742FB002874D0EE
:108EC000F87E10B1FF280CD0FFE04FF210073846B3
:108ED00005F0D2FA3461012347F201113846109AA5
:108EE00097E0FFF733FB8649C8713169012970D0DB
:108EF00003286FD3C6F81080012347F201114FF207
:108F00001000109A05F046FC8DF80A400E216846C4
:108F1000FDF768FE8DF80B00000A8DF80C008DF847
:108F20000D500E216846FDF7DBFC4FF4FA600CF0A3
:108F300015F988E00BE002E08DF80A00C5E07A48F8
:108F40000068016A784888479AF83500F4E79AF88B
:108F50003D00012802D18DF80A40B6E08DF80A9054
:108F6000B3E01B2001F036F908B1FEF7D7FF8DF80A
:108F70000A400E216846FDF735FE8DF80B00000A09
:108F80008DF80C008DF80D500E216846FDF7A8FCF9
:108F9000E1E7012884D040BB644804E00128F9D00F
:108FA00018BB49F6404088478FE068E0604BBA7ACA
:108FB0001B680B2A7ED00FDC4E480B2A80691AD220
:108FC000DFE802F009191F1919191943065467003F
:108FD000B2E712E013E078E70F2A76D006DC0C2A1D
:108FE00019D00D2A6AD00E2A05D16EE0102A6CD055
:108FF000FF2A3FF476AFFE209EE704209CE7052081
:109000009AE702203061012347F201114FF210006C
:10901000109A05F0BFFB8DF80A400E216846FDF757
:10902000E1FD8DF80B00000A8DF80C008DF80D5055
:109030000E216846FDF754FC4FF4FA600CF08EF8F0
:10904000192001F0C7F8FDF755FFBBF10F0F85D1CF
:10905000FA7A90429ED03AB1C6F81880254A012388
:1090600018324FF21000D4E7B461F7E7BBF1120FEA
:109070007FF416AFD7F80B0070613C2801D20220B4
:109080005AE71C4A0423143247F207114FF210002A
:10909000BFE77069CDF80A0011216846FDF7A2FD0F
:1090A0008DF80E00000A8DF80F008DF81050112178
:1090B00017E0FFE70128CAD1402102E00128C6D10C
:1090C000202118460CF07AFC45E70E216846FDF792
:1090D00089FD8DF80B00000A8DF80C008DF80D50FD
:1090E0000E216846FDF7FCFB17B0BDE8F08F02F0DB
:1090F00009FC21E7C02F00202C380020B82B0020CD
:10910000DC2F00204847544E42474E543031303314
:109110003030310053303230313030343139303545
:109120003330310025730000002C0020C0270900D7
:10913000942B00202DE9F04700250F4681464FF083
:109140000108AA46244C254E38E0208858B1012851
:109150000ED0022815D0811E07291ED819F8051037
:109160003154401C13E019F805007E2811D023E08B
:1091700019F8050010B97070022008E07E2808D0A8
:1091800018E019F805001028F8D1B07003202080ED
:1091900012E03070A4F800800EE00A280CD319F811
:1091A000051031547E2900F101000BD080B22080DF
:1091B000642801D3A4F800A06D1CADB2BD42C4D395
:1091C000BDE8F08781B20548FDF7D6FB01460348AC
:1091D000FFF78AFDEEE70000102C0020F03300209E
:1091E000124D03269AB0288811A106EB004007F023
:1091F00013F8154F4FF0FF386C4664216846FDF7B1
:1092000088F94246694678680CF09AFD0128F4D145
:1092100028889DF8002006EB0040611C06F0A8FF9E
:109220009DF80010601CFFF785FFE6E7B42E0020D4
:10923000626C655F636F6D6D5F74687265616420F9
:1092400073746172742E0000102C002070B504003D
:1092500012D001461C221448FDF742F91248134D62
:109260000560206850B17ADF002806D120680168C7
:1092700029604068686005E00E2070BD0B487BDF08
:109280000028FAD108484FF6FF711438084A20F830
:10929000041B0549343901600021FEF7C9FE00288E
:1092A000EBD0032070BD00000C8A0020AC2C002005
:1092B0005D4D030010B5044600F094F808B1204657
:1092C00010BD142010BD000010B5044600F08AF84F
:1092D000002805D02146BDE81040024805F0D3BD66
:1092E00010BD0000388A002070B515460E460446B1
:1092F0000BF074FD002809D0054800EB840080695C
:109300002A463146BDE8704001F064BF70BD0000E0
:10931000288A002070B50546002400F063F838B1B3
:109320002946044805F0AFFD08B1022400E00124FD
:10933000204670BD348A002070B50546002400F038
:1093400051F838B12946044805F09DFD08B10224C2
:1093500000E00124204670BD308A002010B518219D
:10936000034805F06BFD182800D0C0B210BD000006
:10937000288A002070B505460C4608460BF02EFDE5
:1093800060B1284600F02EF840B10548294600EBB0
:109390008400BDE87040183005F075BD002070BD38
:1093A000288A002070B5054614460E4608460BF084
:1093B00015FD002812D0284600F014F800280DD022
:1093C0000748294600EB860018301CB1BDE8704004
:1093D00005F064BDBDE8704005F015BD70BD00002E
:1093E000288A0020142801D3002070470146014834
:1093F00005F049BD2C8A00207CB5054608880C463E
:109400000930904201D90C207CBD68466DDF0028F0
:10941000FAD121880820685420881B21401C80B282
:10942000208029542088401C80B220802844DDF808
:1094300001100160BDF8051081802088801D80B278
:1094400020809DF80010490800D00121295420886F
:10945000401C208000207CBD10B505F00BFF0028CB
:1094600009D105484FF0030C00DF002803D1BDE807
:10947000104005F063BF10BD188D002018B10349DE
:109480000860002070470E20704700000C2D00205F
:1094900010B54FF0FF3100203DDF00280BD1B12186
:1094A0003CDF002807D10448416901208847022099
:1094B00007F060F8002010BDFC8C0020044810B5B7
:1094C0000068416900208847BDE81040FFF7E0BF11
:1094D0000C2D002030B58FB005461C2101A8FDF7EA
:1094E00018F80024142109A80894FDF712F89DF833
:1094F0002000009420F00F00401C20F0F0001030FD
:109500008DF820009DF82100029420F00F00401CEF
:1095100020F0F00010308DF821009DF82200049416
:1095200020F00600801C8DF822009DF8040009AA96
:1095300040F028008DF8040008A8CDE90540079404
:1095400028788DF83A000320ADF838009DF8000027
:10955000ADF82C4020F00F00401C20F0F00010303F
:109560008DF800009DF80100ADF82E4020F00F00AE
:10957000401C20F0F00010308DF801009DF8020032
:109580000D9420F00600801C20F0080040F011002F
:109590008DF802000EA809901720CDF828D0ADF85C
:1095A00030006888AB1D01A9AADF0FB030BD0000F4
:1095B00010B5164C86B01ECC8DE81E0020B3144C9E
:1095C0004FF6FF71A1800068606100206076207610
:1095D0002046FFF753FF002814D101208DF8120018
:1095E0004FF65960ADF81000A21C04A90120A8DFB5
:1095F000002807D12146684662DF002802D12046B4
:10960000FFF768FF06B010BD0E20FBE79066030071
:10961000FC8C002010B500280FD00188204C502968
:1096200026D00BDC10291DD0112906D1A1888088F5
:10963000814202D14FF6FF70A08010BD512913D096
:109640005329FAD1C088E1888842F6D1607E00288B
:10965000F3D0FFF733FF0028EFD06169BDE8104079
:10966000022008478088E7E7BDE8104008F08CB981
:1096700030F8061F62899142DFD141890229DCD18D
:109680000C3000F023FB0749207603220988BDE84F
:10969000104002EB0143024603A1184606F0C0BD8C
:1096A000FC8C0020B42E00205265636569766564E9
:1096B00020696E6469636174696F6E20737461748C
:1096C00065202564000000002DE9F0410546007B7F
:1096D000042601272D4C012811D002282CD0022667
:1096E000287B314600F08AF818B1206841690320D0
:1096F0008847206841690220BDE8F041084720689A
:109700004FF00008817E49B10621012000F076F873
:10971000002839D0206841690320EDE74776012110
:10972000084600F06BF800282ED02268112882F835
:109730001980D5D10626D3E76A7B142A20D8FAB13E
:10974000DFF84C8005F10E0108F10400FCF7C8FEBB
:10975000697BC8F8181021684046897E0029BFD16E
:10976000A0F10C010A68011F904758B10F28B7D12A
:1097700008480949008807EB004006F04DFDAFE7B7
:109780000526ADE720688776BDE8F0810C2D002026
:10979000248D0020B42E0020E86A030070B515491E
:1097A00000250A68002A24D04A68002A21D00831FE
:1097B000904708281DD0104C0028206885760ED0D0
:1097C0000621022000F01AF818B120684169032030
:1097D0008847206841690220BDE8704008470121A0
:1097E000022000F00BF8002803D020684169032014
:1097F000F2E770BD188D00200C2D002086B00323E9
:10980000ADF8003020238DF814308DF815000022BB
:109810000E48019202928DF81610C188ADF804101E
:1098200002218DF8061005A90491ADF80820CDF8A5
:109830000CD0808801A9AEDF002804D1BDF800104B
:10984000032900D00C2006B070470000FC8C0020DB
:109850000F4A0321128801EB024268B101280ED0A1
:109860000B4A01210228128801EB02420AD0032888
:1098700010460AD007A109E0104610A106E01046E4
:109880001AA103E0104622A100E030A106F0C4BCFA
:10989000B42E0020556E6B6E6F776E206576656E08
:1098A000742066726F6D20626C655F6466755F62BE
:1098B0007574746F6E6C6573732E00004465766901
:1098C000636520697320707265706172696E6720CC
:1098D000746F20656E74657220626F6F746C6F6157
:1098E000646572206D6F64652E00000044657669C2
:1098F00063652077696C6C20656E74657220626F99
:109900006F746C6F61646572206D6F64652E00000A
:109910005265717565737420746F20656E7465721D
:1099200020626F6F746C6F61646572206D6F646527
:10993000206661696C6564206173796E6368726F1B
:109940006E656F75736C792E00000000526571753D
:1099500065737420746F2073656E64206120726576
:1099600073706F6E736520746F20636C69656E74BD
:10997000206661696C65642E00000000054902885C
:109980004868102A04D0112A01D1401E486070474F
:10999000401CFBE7282C00202DE9F04701883B4EB6
:1099A00040F2F3194FF6FF7510291BD011293ED054
:1099B000122954D0502946D1C188F289841D914280
:1099C00041D1618902293ED18688304602F00CFBE4
:1099D000050038D004F10C0000F07CF9A8B329464A
:1099E00030464EE0C17B8788044601292BD1A8462A
:1099F000284602F0F9FA050017D02F8000202872BF
:109A0000234843464A460168C5F80A104068C5F82D
:109A10000E0004F1100105F10A0002F0B1FB6872BA
:109A2000F08900280FD129462AE0042013E080881D
:109A300002F0DAFA040006D06068FEF77BFB08B19A
:109A40000AF064F82580BDE8F087FFE76868FEF754
:109A500071FB0028F7D0BDE8F0470AF057B88788B7
:109A60000646384602F0C0FA0400ECD02B464A46BF
:109A700006F1080104F10A0002F082FB607221463F
:109A80003846BDE8F04700F04FBE00000C8A0020C9
:109A9000AC2C00202DE9F04F0746858802883D4810
:109AA000012197B08346102A09D0112A49D01A2AD9
:109AB0006CD1387AB1EB101F45D2012244E0354C0D
:109AC000083CA068C0430B9061680BA805F0FFF943
:109AD0000B990CA800F0C2FD2C220CA96846FCF7DB
:109AE000FFFC0026E946A04610E000BF09EB460057
:109AF0005FF00004B0F804A008EB84005146001D9C
:109B000005F081F9641C1D2CF6D3761C0098B04238
:109B1000ECD8142D05D317B00420BDE8F04FFEF7A4
:109B2000FDB92946584605F0B9F9294608F104005F
:109B300005F0B4F9F87B012828D016482946001D05
:109B400015E029461AE000220221B1EB101F01D2D4
:109B5000012600E000260F49083901F11000041D1C
:109B6000294682B105F09AF936B12946204617B048
:109B7000BDE8F04F05F092B92946204617B0BDE880
:109B8000F04F05F040B905F03EF9F5E717B0BDE834
:109B9000F08F0000308A002010B504460748007896
:109BA00000280AD0204602F04DF820460AF07AF943
:109BB0002046BDE8104001F0A3BC10BDDC2C002005
:109BC000F0B585B016460F4604001D4614D004AA11
:109BD0001946E068FEF78EFD00280BD1A5F57F4001
:109BE000FF380BD0049848B1007848B13088F42889
:109BF00008D9072005B0F0BD0E20FBE70520F9E7E6
:109C00000820F7E700200090019002900390A088C0
:109C1000ADF8000001208DF80200CDE90267694629
:109C20002846AEDFE6E738B50D46040014D09DB1F6
:109C30002868206101208DF802004FF6E070ADF831
:109C40000000A21C69460120A8DF002803D1294694
:109C5000204601F069FD38BD0E2038BD70B588B0D2
:109C60000446002924D0002C22D00846218810293F
:109C700020D0502924D057291AD10546A188C06880
:109C800006AAFEF737FD002812D1069E307800287C
:109C90000ED018216846FCF73CFC01208DF800002E
:109CA0000195A088ADF808000396296968468847A1
:109CB00008B070BD08B02146BDE8704007F08CBD0B
:109CC00008B02146BDE8704007F096BE0078C0F3AA
:109CD00040007047007800F0010070470149085CBF
:109CE00070470000956403000549095C4FF0A040EF
:109CF000D0F81005C84010F0010000D001207047D6
:109D0000956403007CB50446C0074FF000050AD0F7
:109D10000D4801220023007800951146019505F0B9
:109D20006DFF00F043F8A0070DD5074E0024761C08
:109D30000022305D032300951146019505F05EFF7A
:109D4000641C042CF4D37CBD9464030007490B5CB1
:109D50004FF0A041D1F804250120984020EA0203E9
:109D6000C1F808351040C1F80C0570479464030031
:109D70000249085C002105F0ECBF00009464030078
:109D80000249085C012105F0E4BF0000946403006F
:109D90000549095C4FF0A040D0F80405C84010F018
:109DA000010000D001207047946403000020FFF7F9
:109DB000DFBF0020FFF7E4BF10B50246064B4FF0AF
:109DC000FF3000215C5C944201D1084610BD491C63
:109DD0000429F7D310BD00009564030070B50D4E43
:109DE0000D004FF00004306005D0012000F07CF839
:109DF00008B102202870706848B90B2201210020A8
:109E000000F0C6F908B1072800D10020044620461A
:109E100070BD0000282C002010B5002000F010FBC1
:109E200008B1062800D1002010BD10B500211A226B
:109E3000084600F0ADF901211622084600F0A8F905
:109E400017220121022000F0A3F91822012103208A
:109E500000F09EF919220021BDE81040032000F017
:109E600097B900002DE9F0410D460746FFF7A4FF22
:109E7000044604282FD22900184D1948194E22D023
:109E800001290ED00A2926D104EB44002844447845
:109E9000002C20D0B16800291DD02046BDE8F0413B
:109EA000084704EB44016C5C294449780029EFD051
:109EB0000C4A4FF47A71D21C8068FEF7E5F800284E
:109EC000E6D1F770E4E78068FEF734F904EB44006C
:109ED00028448478DCE7BDE8F08100009434002059
:109EE0009C6403001C2C0020042801D2FFF7FCBE58
:109EF000002070472DE9FF5FDFF888814FF0000AEE
:109F00000146CDF800A0B8F800005C4F5C4E4FF061
:109F100003095D4C4FF0805509EB0040172971D0C3
:109F20000BDC0A296BDD0B2919D0162967D157A143
:109F300006F072F96B46082252E0DFF840B11829AA
:109F40000BF1D40B64D0192975D01A2974D01B29B0
:109F500055D153A106F060F96B46022240E056A1AC
:109F600006F05AF9062001F05BFC6088FFF7E4F97F
:109F7000022827D0B8F8001009EB014053A106F0E1
:109F80004BF93E48603050F8581F01918188ADF878
:109F9000081081798DF80A104089ADF80B003A4815
:109FA00030300921C26801A89047DFF83CA1DAF8F7
:109FB0000000FEF7BFF800224EF66021DAF800003C
:109FC000FEF762F897F8310040B9B8F8001009EBD5
:109FD000014046A106F020F901F090FB6B460122FA
:109FE0004D48E1680CF030FA012808D100980028AB
:109FF00005D0356040BFBFF34F8FBFF36F8FBDE813
:10A00000FF9FFFE745A106F007F96B461022E7E73F
:10A0100047A106F001F9002001F002FC01218BF8B4
:10A020000410C7F820A097F8310050B9B8F8000024
:10A0300009EB004001E00EE019E042A106F0ECF867
:10A0400006E06088FFF778F90228D8D001F064FBB9
:10A0500001F054FBD3E743A106F0DEF8012001F044
:10A06000DFFB8BF804A04FF47A603862E9E742A185
:10A0700006F0D2F86B460422B2E70000082F002059
:10A0800004ED00E0B42E0020882B00204253505FE6
:10A090004556454E545F4C4953494E5431000000DB
:10A0A0004253505F4556454E545F4B45595F4C4FA8
:10A0B0004E475055534800004253505F4556454E59
:10A0C000545F57414B4555502E0000006E6F206382
:10A0D0006F6E6E65637420616E64206368616E6785
:10A0E00065206E616D652E0070640300424C455F13
:10A0F0004144565F49444C452C20676F20746F20C3
:10A100007374617274206661737420616476657221
:10A11000746973696E672E00254F03004253505FC8
:10A120004556454E545F4C4953494E54322E00001B
:10A130004253505F4556454E545F55534256494E23
:10A140002E000000616C7761797320737461727402
:10A150002066617374206164766572746973696ED8
:10A16000672E00004253505F4556454E545F55538D
:10A1700042564F55542E00004253505F4556454EAF
:10A18000545F4B45595F52454C45415345000000D3
:10A1900070B50023042810D20D4D00EB4004012AB5
:10A1A00002D101290CD00022094E00EB40003044BE
:10A1B00061B1012906D00A2906D00723184670BDCF
:10A1C0000E30C2B22A55F9E74270F7E78270F5E720
:10A1D00094340020044A014600201279D20702D0AC
:10A1E000084600F04DB870471C2C002070B506469C
:10A1F0001E480024C0E90161B0071FD500250122D7
:10A2000011462846FFF7C4FF6D1C0446042D02D2F8
:10A21000002CF4D012E08CB9322204211448FDF74E
:10A2200003FE04000AD1FDF7EDFD040006D110483D
:10A23000104A0021001FFDF7FBFE0446F00712D074
:10A240000120FFF75FFD74B909480B4A00210C3863
:10A25000FDF7EEFE040006D10548084A0121083842
:10A26000FDF7E6FE0446204670BD00001C2C0020D1
:10A27000A86403000DA5020045C202001B7D020078
:10A280002DE9F05F6B4C05460026607818B1002080
:10A29000607001F0CDFF684F4FF4E16B4FF4FA7935
:10A2A0004FF47A784FF0010A1D2D5DD2DFE805F0FA
:10A2B000970F0F283A475DA3646C646CA77474749D
:10A2C0007474979A9A9EA7A7A3AAAEBA5D000020BD
:10A2D000FFF75EFD00284FF0000008D0FFF748FDB3
:10A2E000022D01D1584615E04FF47A6012E0FFF7D5
:10A2F00047FD022D01D1C8200CE04FF4C87009E0E1
:10A300000020FFF745FD00286FD00020FFF730FD4B
:10A310004FF4487000EB4001C1EBC011257009EB10
:10A32000C1011AE00020FFF733FD00284FF00000C4
:10A3300002D0FFF71DFDD7E7FFF722FDDDE7002084
:10A34000FFF726FD00284FF0000002D0FFF710FDB8
:10A3500001E0FFF715FD39492570B1FBF8F1002246
:10A360003868FDF791FE064636E00020FFF7EEFC68
:10A37000257006E025702FE084F801A00020FFF78B
:10A38000E5FC00226421EBE784F801A00020FFF740
:10A39000DDFC00224946E3E77868FDF7CBFE064680
:10A3A000D5F1110000D02EB10020FFF7E1FC002014
:10A3B000A07011E080B240F63541484309EB8011AE
:10A3C00091FBF8F100227868FDF75EFE064600205A
:10A3D000FFF7D6FC84F802A03046BDE8F09F01F0FC
:10A3E00027FFC7E701F024FF05E017E001F020FF99
:10A3F0000020FFF7C5FC0020FFF7C2FCBAE7FFF71B
:10A40000D8FCB7E70020FFF7B3FCB3E70020FFF765
:10A41000BFFC18B10020FFF7ABFC63E70020FFF79B
:10A42000AFFC68E70020FFF791FC00222570C821EF
:10A4300096E700001C2C00209C640300340F0300EE
:10A4400001210BF087B800002DE9F8430546861C72
:10A4500000208DF8000090460F464FF00109684635
:10A46000FDF744FF1B4C20683860D4E90001401A16
:10A47000A16804F21C47081A0EE00121384604F0D6
:10A4800020FD02F003F80146384604F01AFDD4E935
:10A490000001401AA168081A401C8642EDD8B8F1A4
:10A4A000000F03D0052065F3891002E0062065F354
:10A4B0009F50A2682168114004EB8101C8602068A8
:10A4C000304420609DF80000FDF734FF4846BDE8A9
:10A4D000F88300003891002030B482680468531C6F
:10A4E0008360A154D0E901128A4202D330BC05F046
:10A4F00032B830BC70470000034803C8814201D124
:10A5000001207047002070473891002000780A2110
:10A51000FFF7A8BC10B503280FD108480321008815
:10A5200001EB004006A105F077FE0F49A920086065
:10A53000BDE81040002006F01DB810BDB42E00206C
:10A540004E52465F5344485F4556545F53544154FE
:10A55000455F44495341424C454420746F20444672
:10A5600055206D6F64652E002005004005494FF0B1
:10A57000FF32082841F8202002D3084480F8482000
:10A5800070470000A48D0020F0B54FF0FF3512B1E8
:10A590000023082601E008230C260C4C05E000BF30
:10A5A00054F823707F1C04D05B1CB342F8D32846B8
:10A5B000F0BD26185DB286F8305044F82310002A0A
:10A5C000F5D1E11881F84800F1E70000A48D0020E2
:10A5D0000249084490F9300070470000A48D002023
:10A5E00070B504464FF6FF750A462846AC4208D1BE
:10A5F0004FF480742146104608F070F8A04209D04C
:10A6000070BDFF2CFCD82146104608F05AF808B15E
:10A61000204670BD284670BD70B5084C050009D0B5
:10A6200010342168002907D008682060496828464E
:10A630008847F6E70834F4E770BD0000408D00203D
:10A64000054A012120B1012805D19170FFF7E4BF2F
:10A6500051700020FAE77047408D002073B58CB030
:10A660000646002000900D9880B100246D462146DA
:10A670000DA804F008FC30B1009805EB4000848080
:10A680000098401C0090641C142CF0D32C226946C6
:10A690003046FBF725FF0EB070BD2DE9F04117885D
:10A6A0000646B81D14460D46984202D90C20BDE856
:10A6B000F0813188072206290AD34FF4486C4FF6FF
:10A6C000FF73614501D9994202D17088062801D2F1
:10A6D0001046ECE7604501D99842F9D1994203D080
:10A6E000984201D08142F3D80520E85520881221F4
:10A6F000401C80B2208029542088401C80B22080D9
:10A70000411930880AF0A4FA2188084480B22080D8
:10A71000411970880AF09CFA2188084420800020A2
:10A72000C5E7FDF7FBBB000038B54A7A0F4B62B1B5
:10A7300000220A725969002906D001228DF80020F2
:10A74000ADF802006846884738BD0A7A62B19B6856
:10A750004C68024619462046FDF796FC0028F3D0C7
:10A76000BDE8384009F0D2B95B68F1E70C8A0020F7
:10A77000F0B585B016460F4604461D4614220B4917
:10A780006846FBF7ADFE0A488DF80870ADF8024048
:10A79000ADF80A608DF80C50017800222046FEF7D3
:10A7A00001FE684600F050FA05B0F0BD6466030093
:10A7B000EC2C0020F0B587B0074600200490ADF8DF
:10A7C00010100590ADF812100190029001AA04A992
:10A7D000384690DF060022D006F0E0F8114C034620
:10A7E000012520883A4605EB00400F4905F01FFD82
:10A7F000BDF8042012B9BDF8060038B12088BDF8B4
:10A80000063005EB004009A105F011FDBDF8082058
:10A810002AB12088154905EB004005F001FD07B07D
:10A820003046F0BD702E0020446A03005468652055
:10A830007265717565737465642054582F52582081
:10A840007061636B6574206C656E677468206973F2
:10A8500020746F6F206C6F6E672062792025752FD2
:10A860002575206F63746574732E0000906A030071
:10A8700030B5044685B000211B4807F022FF0028B0
:10A880002FD00025204601F00CF968B1112812D014
:10A8900086281BD0A0F54051023903D0014620463E
:10A8A00009F03CF9294607E005B029462046BDE8F5
:10A8B000304001F0C9BD0121204601F0C5FD05B0C1
:10A8C0000021BDE83040084807F02FBF1422074997
:10A8D0006846FBF705FEADF80240684600F090F9C7
:10A8E000E0E705B030BD0000B52C00208C6503000A
:10A8F0007FB50C4610B1012004B070BD2079002650
:10A9000038B141F61D5501281BD0022826D00F2052
:10A91000F2E70220207102960396E06801906946F2
:10A9200001A808F013FE50B102988188E1800088E8
:10A930002081BDF80010029808F086FEDCE70A20AE
:10A94000DAE70A4B6A460021A01D08F0BBFD38B1CA
:10A95000064918398E61CE610A28CDD12846CBE749
:10A9600002488188019808F06FFEF5E7842D0020E9
:10A970002DE9F0470025DFF88C803CE0606800217D
:10A9800000EBC506012032789146FBF795FDD4E92E
:10A99000062300EA020701EA030C57EA0C0728D055
:10A9A00082438B434846C4E9062306F045F93278D2
:10A9B0008246914601200021FBF77EFDD4E9042365
:10A9C00000EA020401EA03074A4650460021FBF769
:10A9D00073FD44404F403C430BD17078012801D0B7
:10A9E000012100E00021726881EA0A010AB14846AB
:10A9F00090476D1CEDB298F8000044468542BDD3E7
:10AA0000BDE8F087382D002010B50021024804F081
:10AA100073FA80F3100010BD5495002009490120FD
:10AA2000096809B1002070470749CA69002AF9D1AD
:10AA3000044A283212688968491E8A42F3D10220EA
:10AA40007047000074390020542C002013460A4639
:10AA50000021FFF78DBE00002DE9F843104D0F4691
:10AA600080461E4691466946286804F0A0F9040015
:10AA700014D01C21FBF74DFD01202071C4F8149067
:10AA8000380BC4F80080C4E902606946286804F005
:10AA9000AFF908F0ABFC0020BDE8F8830420FBE729
:10AAA0004867030010B503780022072B06D2DFE8C1
:10AAB00003F005040610202930000A7010BD0123A0
:10AAC0000B7003898B818388CB81C06888600A748E
:10AAD00010BD02220A7002898A818288CA81C268F6
:10AAE0008A60807D062802D00020087410BD0120F5
:10AAF000FBE703220A70C2888A810289CA81C06882
:10AB0000886010BD04230B70C0888881CA818A6068
:10AB100010BD0520087010BD70B5064D0646002416
:10AB200055F8241009B130468847641C042CF7D32B
:10AB300070BD0000988E002030B50446006887B0D4
:10AB40000D46806800281FD018216846FBF7E1FCFD
:10AB50000195A0680590207910B1012810D107E077
:10AB600001208DF8000020690290E068039005E064
:10AB700002208DF80000E0680003029060690490F4
:10AB8000206881686846884707B030BD70B586B0D8
:10AB900015460C00064619D0112C17D0082C15D0DC
:10ABA00014216846FBF7B5FCADF80260304601F0B1
:10ABB0006FF9ADF804000D2C0AD0862C1CD00720AC
:10ABC0008DF800000294684600F04CF806B070BDA5
:10ABD00003208DF8000025B12878C00701D001209E
:10ABE00000E002208DF8080000208DF80C0041F2F2
:10ABF0000110ADF80A00E6E706208DF80000E2E754
:10AC000010B50446408801F043F9A080024801686D
:10AC10002046BDE810400847BC2C00202DE9F0413B
:10AC200007460024064E074D05E000BF56F82410E5
:10AC300038468847641CE8788442F7DBBDE8F08139
:10AC4000B08C0020DC2C002010B50446408801F0B8
:10AC50001FF9A080024801682046BDE8104008475F
:10AC60003866030001490968084700008C66030044
:10AC700070B586B0044614216846FBF74AFCA089EB
:10AC80000125A0F54040ADF8040020782A4E0628A2
:10AC900033D2DFE800F0320303032C48A08900F030
:10ACA0003EFA30B9E08943F6FE71A0F54040884293
:10ACB00023D8A07B8DF80800207803280FD000202F
:10ACC0008DF80900A0680390606850B109208DF8E4
:10ACD000000060680490684607F056F90DE0012016
:10ACE000EEE708208DF800008DF81050F3E7A089FA
:10ACF00000F015FA08B1E08930B17078002801D071
:10AD000007F072FA06B070BD606820B10B208DF8B4
:10AD100000007570DFE70A208DF80000BDF8040020
:10AD200007F0ECFAF5E713208DF800004FF6FF70FE
:10AD3000ADF80400CFE70000CC2C002038B5044665
:10AD40000E480078A8B1A4F57F40FF380FD06846C0
:10AD500008F07EFA78B10521017001210171C480EB
:10AD6000684608F083FA08F033FB002038BD042061
:10AD700038BD022038BD082038BD00008C2D0020D1
:10AD80000C4808B5007888B1684608F061FA78B1D7
:10AD900006210170684608F069FA0748017809B190
:10ADA0000121017308F014FB002008BD022008BD3A
:10ADB000082008BD8C2D00205C8F0020F0B587B0E6
:10ADC00014216846FBF7A5FB2B4C207818B1684688
:10ADD000FFF7A2FE4EE0201D04F070F8B8BB4FF064
:10ADE000102041690004026940694B1C01D100FB3D
:10ADF00002F1224800220161A1F54051C1602049C1
:10AE000004F038FD002820D11F481C238C221D4946
:10AE1000006803F0B9FF06F0A7FE051E14D0022853
:10AE200012D000270126062D12D005A808F010FA2E
:10AE300088B106700C2D18D2DFE805F0170F170F38
:10AE400017161716171113110B2007B0F0BD11E0DC
:10AE500026706760BBE70820F7E7077105E003216C
:10AE600000E00221017100E0067105A808F0FEF97A
:10AE700008F0AEFA0020E8E78C2D00205C2E0020C0
:10AE800058670300A88E0020C066030038B5040090
:10AE900014D0694608F05AFBA0B1BDF8000000EBE1
:10AEA0008001094800EB8100C16849B1A17A39B13C
:10AEB000C168491EC1600020A07238BD052038BDA0
:10AEC000062038BD0A2038BD348F002038B504462E
:10AED0000D48007888B194B1684608F0B9F980B19E
:10AEE00004210170002101712168C160684608F0E9
:10AEF000BDF908F06DFA002038BD022038BD0520EC
:10AF000038BD082038BD00008C2D00201FB501A9D8
:10AF1000684608F0D7FA04B010BD07B513460A46D4
:10AF20006946002008F0CEFA0EBD07B513460A4662
:10AF30000021684608F0C6FA0EBD20B119B10068BC
:10AF4000086000207047052070470000F8B50D46E6
:10AF5000040018D0BDB1694608F0F8FAA8B1BDF8F0
:10AF600000000B4900EB800001EB800001210C3058
:10AF7000666803F0A6FF2E6060680C3068600120F0
:10AF8000A0720020F8BD0520F8BD0A20F8BD000021
:10AF9000348F002018B1032300220AF0CDBB052016
:10AFA0007047022300220AF0C7BB12B102230AF045
:10AFB000C3BB052070470000084910B50A69042A80
:10AFC0000AD0074A096942F82100044801211030DB
:10AFD00003F077FF002010BD0C2010BD6C2D002069
:10AFE000988E002038B5044609480D46007858B1BF
:10AFF00064B1694628460AF099FC002803D1BDF8DF
:10B0000000102180658038BD022038BD052038BD84
:10B010008C2D002010B504460E48007898B1A4B1DC
:10B020002188022913D80C4A01EB810002EB80022F
:10B0300060885289C31C934209D80AF06BFC002037
:10B040002080608010BD022010BD052010BD0420AE
:10B0500010BD00008C2D0020348F00202DE9F84F0A
:10B06000044623480078D8B1ECB112212046FBF702
:10B0700050FA0320DFF87C902080002504F11008AE
:10B0800004F10E0A05EB850109EB8106308971890F
:10B09000084487B2706806F0F1FC032805D007E089
:10B0A0000220BDE8F88F0520FBE72088401E2080A5
:10B0B0006088F16808446080208971890844208193
:10B0C000608938446081C7F58060A18980B281427F
:10B0D00000D2A0815346A21D211D2846CDF8008034
:10B0E00008F0CEFA6D1CADB2022DCBD30020D8E70C
:10B0F0008C2D0020348F0020826883881A400368DA
:10B100009A5C0A708168491C81607047C2688388B4
:10B110001A4003689954C168491CC160704743F6DE
:10B12000FE71A0F54040884201D801207047002000
:10B13000704710B504460078182802D1FEF70EF9C2
:10B14000207010BD10B504460078182802D1FEF713
:10B1500005F9207010BD70B50D460446B0F8981082
:10B16000D0F894000122FDF7AAFB00B1057004F1AC
:10B170003C0204F1940104F1540072DF70BD000040
:10B1800070B51346002206461546862902D01129BD
:10B1900002D002E0012200E001250D4C73B1A1793B
:10B1A000FEF700F92A4661793046FEF7FBF80022E7
:10B1B000A1783046FEF7F6F8002203E0A178FEF70A
:10B1C000F1F82A4661783046BDE87040FEF7EAB8EB
:10B1D000F42C0020F7B517460E0011D0009800257A
:10B1E00060B100242146684603F04DFE18B1A0B2BC
:10B1F0003946B0476D1C641C142CF3D32846FEBDA1
:10B200000020FEBD10B5002821D0114B0022001FE8
:10B21000196803E0814203D80A4649680029F9D138
:10B2200052B11368841A9C4204D10068184410601B
:10B23000104602E0506000E0186039B102680B1A55
:10B24000934203D10B681A4402604968416010BD03
:10B25000502E0020406808F01BB800000EB59DF885
:10B26000080020F00F00401C20F0F00010308DF896
:10B2700008001348FBF78CF982B2114902A87CDF61
:10B2800008B1FCF74BFE4FF4007078DF08B1FCF713
:10B2900045FE0020009001901021ADF80400ADF8AB
:10B2A00000104FF4C8704FF40271ADF80600ADF80D
:10B2B000021068467ADF002801D0FCF72FFE0EBD91
:10B2C000C02F00200B484A8843889A4211D10A882F
:10B2D000A2F52063773B0CD18988C91E8AB282808F
:10B2E000054803211346008801EB004003A104F048
:10B2F0009EBF7047882B0020B42E002044617461EB
:10B30000206C656E2069732073657420746F203023
:10B31000782558282564290070B508B1012070BD32
:10B320001B4C0025207B08B1257301E000F0A4F838
:10B33000207808282AD2DFE800F02904080C102918
:10B340001422BDE8704000F025B8BDE8704000F060
:10B3500081B8BDE8704000F063B8BDE8704000F00F
:10B360003FB8062020706088094900EB800028392A
:10B3700001EB80004068BDE8704006F0D5BB0720B7
:10B3800020706560BDE8704006F0DCBB0F2070BD2A
:10B390005C8F00201149F0B48A1C00200346A1F103
:10B3A00028050C18A67A4EB1A37200EB800405EBB9
:10B3B0008404E66816B9247C012C0AD0401C80B2B3
:10B3C0000228EED30B704B804B60F0BC41F61D5051
:10B3D00070471080F0BC00F03DB800005C8F00208A
:10B3E0000C48418801EB8102A0F1280101EB8201A8
:10B3F000CA6852B1052101700748022181800168A5
:10B4000000230122054804F09FB904220270496814
:10B41000F6E700005C8F0020942D00205C2E0020B9
:10B4200038B50A49084803240B684268898803EB49
:10B43000810153880470DB1C00201B0400909B0BCF
:10B44000034804F0F1FA38BD5C8F0020942D0020F1
:10B450005C2E0020074910B54888091D08F0C6F881
:10B4600018B1BDE81040FFF7DBBFBDE81040FFF7A3
:10B47000B7BF00005C8F0020F0B51F481F490125B1
:10B48000067802248B88A0F12802082E19D2DFE862
:10B4900006F00418181B222F2F170189491C01815F
:10B4A0000021418080F80C1001EB810312F8233059
:10B4B00043B100234418491C89B2A3720229F3D373
:10B4C0000570F0BD0123F5E742685288D21C1A448A
:10B4D0008A800470F0BD46880D6806EB860602EB94
:10B4E000860256680E60556013818C80062100E04C
:10B4F00007210170F0BD00005C8F0020942D00201A
:10B5000030B501888488224D85B0502924D0522935
:10B5100002D0542931D103E0204600F061FF2CE035
:10B5200014221C496846FAF7DBFFADF802402046BA
:10B5300000F0AEFCADF8040000F066FA0022697974
:10B540002046FDF72FFF002229792046FDF72AFF2C
:10B550006846FFF755FB10E0017B01290DD1817A88
:10B5600001290AD10089A0F52451023905D1012110
:10B57000204600F069FF09F0E7FB00220649E87861
:10B58000FDF7B2FE05B0BDE8304008F017BB000083
:10B59000B42C0020B46503007984020010B5044681
:10B5A000007800280FD1608800F01AFF608800F052
:10B5B000C5FA002807D00449608801220979BDE84E
:10B5C0001040FDF7EFBE10BDB42C002010B5124C9A
:10B5D00000202070FDF7C2FEA070FDF7BFFEE070F6
:10B5E000FDF7BCFE2071FDF7B9FE6071A178182946
:10B5F0000FD0E17818290CD02179182909D0182802
:10B6000007D00121601C07F055F8012020700020B0
:10B6100010BD032010BD0000B42C00207CB50446F2
:10B62000007808282FD1607A38BB207A4FF6FF7552
:10B6300001280DD0072802D0082824D11EE0A088B8
:10B6400000F064FBA8421ED0012100F0FDFE1AE0CC
:10B65000A0886A46012106F0AFFB70B90198007816
:10B6600058B1A08800F052FBA8420CD00849012232
:10B670000979FDF797FE08F0A1FA04E004480021DB
:10B68000401C07F052F8BDE87C4009F05DBB0000AB
:10B69000B42C002010B504460A4841782046FDF736
:10B6A00069FE68B10848002101EB410200EB82020B
:10B6B0005288A24201D1C8B210BD491C1429F3D34B
:10B6C000FF2010BDC62C0020A08A002070B5094DB7
:10B6D000094E002404EB440005EB8000717840889B
:10B6E000FDF748FE20B1641C142CF3D3FF2070BD7D
:10B6F000E0B270BDA08A0020C62C002010B5032146
:10B700000448FDF7D5F9002803D0BDE81040FCF748
:10B7100005BC10BD082F0020024890F8540074DFCB
:10B7200070470000082F002070B590B00024054637
:10B7300007949DF81C001C2120F00F00401C20F0F5
:10B74000F00010308DF81C009DF81D0020F00F0057
:10B75000401C20F0F00010308DF81D009DF81E00F8
:10B7600020F00600801C8DF81E006846FAF7D1FE16
:10B770002AA00068089008A80190FAF709FFADF820
:10B780000A0008A8FAF704FFADF808009DF80000C9
:10B79000012640F01E008DF8000007A8CDE9044006
:10B7A0008DF83E604FF6E170ADF83C000E949DF8C8
:10B7B0003800039420F00F00401C20F0F0001030FF
:10B7C0008DF838009DF83900069420F00F00401CD9
:10B7D00020F0F00010308DF839009DF83A00142167
:10B7E00020F00600801C20F0180040F001008DF8C9
:10B7F0003A0009A8FAF78DFE0FA809900EA80A9042
:10B80000F420ADF82C60ADF82E40ADF8300068881B
:10B810002B1D09AA6946AADF10B070BD474E54001F
:10B820002DE9F041364C002501272678E178A278F1
:10B830006378092827D2DFE800F0050E21282E3290
:10B8400036585A00277001291DD0012A1BD0012B20
:10B8500019D018200EE02570012904D0012A04D047
:10B86000012B04D005E01C2004E01A2002E01B207C
:10B8700000E01920BDE8F041FEF7ACBC677001297B
:10B8800001D0012AF3D1BDE8F08165700129EAD029
:10B89000012AEAD030E0A7700129E6D1F3E7A570CC
:10B8A0000129E0D026E01820FEF794FC642009F07E
:10B8B00055FC1920FEF78EFC642009F04FFC18207F
:10B8C000FEF788FC642009F049FC1920FEF782FC91
:10B8D000E0780128C7D0A0780128C6D06078012878
:10B8E000C5D020780128C4D1B3E7E770BBE7E57085
:10B8F000012ABAD0012BBAD0012EBAD1A9E7000093
:10B900004B2C002008B568464CDF009800EB800007
:10B910004000C11700EB9170801008BD38B5044697
:10B92000002000902078002826D1A08A401C00F03A
:10B93000A5FF0546207D2870A28A681C2169FAF7B8
:10B94000CFFD0E4C20680AF0F3F990B900236A4647
:10B95000294620680AF0BAF901280AD1009840B1B6
:10B9600007494FF08050086040BFBFF34F8FBFF3CF
:10B970006F8F2846FFF746FC38BD0000142C0020CE
:10B9800004ED00E02DE9F04180460246012000214F
:10B99000FAF792FD1A4F05460E467868FCF7CAFB87
:10B9A00000280CD1174CD4E9062110462A4001EAA0
:10B9B00006031A4305D0A843B143C4E90601BDE814
:10B9C000F081404605F038F930B1D4E9040128434C
:10B9D0003143C4E9040105E0D4E90410A943B043AC
:10B9E000C4E90410D4E9060128433143C4E906013F
:10B9F000A1687868BDE8F0410022FCF745BB000073
:10BA0000B8660300382D00201CB5054AD2E90212A1
:10BA1000CDE900120022694606F0F3F91CBD0000D2
:10BA2000CC65030003484FF6FF718180012101704E
:10BA300000207047C02C00202DE9FC41804600F01A
:10BA400027FA002403250127A0F57F412646FF3968
:10BA500008D06A46082106F0AFF918B90198841D8C
:10BA60008688056832462B4621464046B1DF0428C9
:10BA700004D0082804D00B2808D002E0112000E0F0
:10BA80000020002F00D10B20BDE8FC810027A80773
:10BA900001D50125E6E73443F5D0002426460325E9
:10BAA000E0E72DE9FC41804600F0F2F90646A0F5FA
:10BAB0007F40FF380ED001252A466D1C0027ADB20D
:10BAC0006B460821304606F0A1F9040006D0072C89
:10BAD00025D025E043F20200BDE8FC810199032353
